:020000040800F2
:1000000000500020790B0008A90A0008B10A000876
:10001000B90A0008C10A0008C90A00080000000067
:10002000000000000000000000000000D10A0008ED
:10003000DD0A000800000000E90A0008F50A0008CF
:10004000C10B0008C10B0008C10B0008C10B000860
:10005000C10B0008C10B0008C10B0008C10B000850
:10006000C10B0008C10B0008C10B0008C10B000840
:10007000C10B0008C10B0008C10B0008C10B000830
:10008000C10B0008C10B0008C10B0008C10B000820
:10009000C10B0008C10B0008C10B0008C10B000810
:1000A000C10B0008C10B0008C10B0008C10B000800
:1000B000C10B0008C10B0008C10B0008C10B0008F0
:1000C000C10B0008C10B0008C10B0008C10B0008E0
:1000D000C10B0008C10B0008C10B0008C10B0008D0
:1000E000C10B0008C10B0008C10B00080000000094
:1000F0000000000000000000000000000000000000
:0C01000000000000000000005FF808F1A3
:10010C0010B5054C237833B9044B13B10448AFF345
:10011C0000800123237010BDA0000020000000000F
:10012C003839000808B5034B1BB103490348AFF33A
:10013C00008008BD00000000A40000203839000831
:10014C0081F0004102E000BF83F0004330B54FEA7C
:10015C0041044FEA430594EA050F08BF90EA020FE9
:10016C001FBF54EA000C55EA020C7FEA645C7FEA7C
:10017C00655C00F0E2804FEA5454D4EB5555B8BF9F
:10018C006D420CDD2C4480EA020281EA030382EA10
:10019C00000083EA010180EA020281EA0303362DA2
:1001AC0088BF30BD11F0004F4FEA01314FF4801C75
:1001BC004CEA113102D0404261EB410113F0004F87
:1001CC004FEA03334CEA133302D0524263EB43033E
:1001DC0094EA050F00F0A780A4F10104D5F1200EDC
:1001EC000DDB02FA0EFC22FA05F2801841F1000137
:1001FC0003FA0EF2801843FA05F359410EE0A5F10B
:10020C0020050EF1200E012A03FA0EFC28BF4CF03B
:10021C00020C43FA05F3C01851EBE37101F00045F1
:10022C0007D54FF0000EDCF1000C7EEB00006EEBFE
:10023C000101B1F5801F1BD3B1F5001F0CD3490888
:10024C005FEA30004FEA3C0C04F101044FEA4452DF
:10025C0012F5800F80F09A80BCF1004F08BF5FEA66
:10026C00500C50F1000041EB045141EA050130BD46
:10027C005FEA4C0C404141EB0101013C28BFB1F558
:10028C00801FE9D291F0000F04BF01460020B1FAA3
:10029C0081F308BF2033A3F10B03B3F120020CDA76
:1002AC000C3208DD02F1140CC2F10C0201FA0CF054
:1002BC0021FA02F10CE002F11402D8BFC2F1200CB9
:1002CC0001FA02F120FA0CFCDCBF41EA0C0190406F
:1002DC00E41AA2BF01EB0451294330BD6FEA0404B8
:1002EC001F3C1CDA0C340EDC04F11404C4F12002A3
:1002FC0020FA04F001FA02F340EA030021FA04F3B5
:10030C0045EA030130BDC4F10C04C4F1200220FA0B
:10031C0002F001FA04F340EA0300294630BD21FA49
:10032C0004F0294630BD94F0000F83F4801306BF0F
:10033C0081F480110134013D4EE77FEA645C18BF03
:10034C007FEA655C29D094EA050F08BF90EA020F9A
:10035C0005D054EA000C04BF1946104630BD91EA92
:10036C00030F1EBF0021002030BD5FEA545C05D195
:10037C004000494128BF41F0004130BD14F58004D4
:10038C003CBF01F5801130BD01F0004545F0FE4148
:10039C0041F470014FF0000030BD7FEA645C1ABF7D
:1003AC00194610467FEA655C1CBF0B46024650EAB4
:1003BC00013406BF52EA033591EA030F41F40021E0
:1003CC0030BD00BF90F0000F04BF0021704730B566
:1003DC004FF4806404F132044FF000054FF000013B
:1003EC0050E700BF90F0000F04BF0021704730B5FC
:1003FC004FF4806404F1320410F0004548BF4042D1
:10040C004FF000013EE700BF42004FEAE2014FEA25
:10041C0031014FEA02701FBF12F07F4393F07F4F00
:10042C0081F06051704732F07F4208BF704793F003
:10043C007F4F04BF41F40021704730B54FF4607416
:10044C0001F0004521F000411CE700BF50EA010219
:10045C0008BF704730B54FF000050AE050EA0102C2
:10046C0008BF704730B511F0004502D5404261EB32
:10047C0041014FF4806404F132045FEA915C3FF473
:10048C00D8AE4FF003025FEADC0C18BF03325FEA10
:10049C00DC0C18BF033202EBDC02C2F1200300FAC1
:1004AC0003FC20FA02F001FA03FE40EA0E0021FAE6
:1004BC0002F11444BDE600BF80F0004002E000BF32
:1004CC0081F0004142001FBF5FEA410392EA030F33
:1004DC007FEA226C7FEA236C6AD04FEA1262D2EB7D
:1004EC001363C1BFD218414048404140B8BF5B4282
:1004FC00192B88BF704710F0004F40F4000020F01B
:10050C007F4018BF404211F0004F41F4000121F030
:10051C007F4118BF494292EA030F3FD0A2F101027A
:10052C0041FA03FC10EB0C00C3F1200301FA03F1B8
:10053C0000F0004302D5494260EB4000B0F5000FDB
:10054C0013D3B0F1807F06D340084FEA310102F19A
:10055C000102FE2A51D2B1F1004F40EBC25008BF4C
:10056C0020F0010040EA03007047490040EB000016
:10057C00013A28BFB0F5000FEDD2B0FA80FCACF117
:10058C00080CB2EB0C0200FA0CF0AABF00EBC25044
:10059C0052421843BCBFD0401843704792F0000F32
:1005AC0081F4000106BF80F400000132013BB5E785
:1005BC004FEA41037FEA226C18BF7FEA236C21D0FB
:1005CC0092EA030F04D092F0000F08BF0846704760
:1005DC0090EA010F1CBF0020704712F07F4F04D12E
:1005EC00400028BF40F00040704712F100723CBF41
:1005FC0000F50000704700F0004343F0FE4040F46B
:10060C00000070477FEA226216BF08467FEA236328
:10061C000146420206BF5FEA412390EA010F40F413
:10062C00800070474FF0000304E000BF10F000435F
:10063C0048BF40425FEA000C08BF704743F0964346
:10064C0001464FF000001CE050EA010208BF704761
:10065C004FF000030AE000BF50EA010208BF7047E8
:10066C0011F0004302D5404261EB41015FEA010CFD
:10067C0002BF84460146002043F0B64308BFA3F1F5
:10068C008053A3F50003BCFA8CF2083AA3EBC253D7
:10069C0010DB01FA02FC634400FA02FCC2F12002F6
:1006AC00BCF1004F20FA02F243EB020008BF20F02D
:1006BC000100704702F1200201FA02FCC2F1200293
:1006CC0050EA4C0021FA02F243EB020008BF20EA88
:1006DC00DC70704780B586B002AF03463960FB71A1
:1006EC001346BB71FB799BB25B0099B2BB799BB291
:1006FC00642200923A68074801F07AFA0346FB73C9
:10070C00FB7B002B0CBF01230023DBB218461037F8
:10071C00BD4680BDBC00002080B586B002AF03464C
:10072C003960FB711346BB71FB799BB25B0099B2CC
:10073C00BB799BB2642200923A68074801F05AF9DF
:10074C000346FB73FB7B002B0CBF01230023DBB2A6
:10075C0018461037BD4680BDBC0000202DE9B043C3
:10076C0086B004AF00F0FCFC00F080F800F0F2F86A
:10077C0000F0C2F8354800F04FFA354B9B69344A0B
:10078C0043F004039361324B9B6903F004033B6019
:10079C003B68102202212F4800F0BAFB2B4800F0D6
:1007AC003BFA0346002B08D1072300932A4B002267
:1007BC000121284800F067FC07E008230093274B31
:1007CC0000220121234800F05EFC4FF4FA6000F097
:1007DC0029FD1E4800F069FA0346012B29D01B4B5A
:1007EC00DB681846FFF710FE80468946174B1B69DD
:1007FC001846FFF709FE04460D46144B5B69184674
:10080C00FFF702FE02460B46CDE90223CDE9004577
:10081C0042464B461249134802F0D8FB0346FB7183
:10082C00FB7900930F4B002200210A4800F02BFCAF
:10083C0007E0052300930C4B00220021054800F033
:10084C0022FC642000F0EEFCC3E700BF0000002097
:10085C0000100240240000205039000858390008CC
:10086C0064390008100100207C39000880B590B074
:10087C0000AF07F1180328220021184602F0C6FB2E
:10088C003B1D00221A605A609A60DA601A610123DB
:10089C00BB614FF48033FB6100233B620123BB62DD
:1008AC0002237B634FF48033BB634FF4E013FB6391
:1008BC0007F11803184601F08DFF0346002B01D0F9
:1008CC0000F076F80F237B600223BB600023FB60F3
:1008DC004FF480633B6100237B613B1D0221184672
:1008EC0002F0FAF90346002B01D000F061F800BFCA
:1008FC004037BD4680BD000080B500AF124B134A97
:10090C001A60114B124A5A600F4B00229A600E4B20
:10091C000022DA600C4B4FF480421A610A4B002221
:10092C005A61094B00229A61074B0022DA61064B8F
:10093C0000221A62044800F019FF0346002B01D074
:10094C0000F036F800BF80BDBC0000200054004011
:10095C00801A060080B485B000AF144B9B69134A13
:10096C0043F020039361114B9B6903F02003FB6060
:10097C00FB680E4B9B690D4A43F0040393610B4BD0
:10098C009B6903F00403BB60BB68084B9B69074A77
:10099C0043F008039361054B9B6903F008037B60EC
:1009AC007B6800BF1437BD4680BC70470010024006
:1009BC0080B400AF72B600BF00BFFDE780B485B055
:1009CC0000AF154B9B69144A43F001039361124B22
:1009DC009B6903F00103BB60BB680F4BDB690E4ADC
:1009EC0043F08053D3610C4BDB6903F080537B6085
:1009FC007B680A4B5B68FB60FB6823F0E063FB6081
:100A0C00FB6843F00073FB60044AFB68536000BF53
:100A1C001437BD4680BC70470010024000000140F6
:100A2C0080B588B000AF786007F1100300221A601F
:100A3C005A609A60DA607B681B68154A934223D12E
:100A4C00144B9B69134A43F008039361114B9B6948
:100A5C0003F00803FB60FB68C0233B6112237B613E
:100A6C000323FB6107F1100319460B4800F0E2FC6D
:100A7C00084BDB69074A43F40013D361054BDB6970
:100A8C0003F40013BB60BB6800BF2037BD4680BDBC
:100A9C000054004000100240000C014080B400AF34
:100AAC0000BFFDE780B400AF00BFFDE780B400AF2E
:100ABC0000BFFDE780B400AF00BFFDE780B400AF1E
:100ACC0000BFFDE780B400AF00BFBD4680BC7047DF
:100ADC0080B400AF00BFBD4680BC704780B400AF8F
:100AEC0000BFBD4680BC704780B500AF00F07EFBF8
:100AFC0000BF80BD80B586B000AF7860144A154B3E
:100B0C00D31A7B617B693B61134B1B68002B02D1B1
:100B1C00114B124A1A60104B1A687B6813443A69DD
:100B2C009A4207D202F07AFA03460C221A604FF06E
:100B3C00FF3309E0084B1B68FB60074B1A687B68A6
:100B4C001344054A1360FB6818461837BD4680BD30
:100B5C000050002000040000240100207802002036
:100B6C0080B400AF00BFBD4680BC7047FFF7F8FFF4
:100B7C000B480C490C4A002302E0D458C4500433EF
:100B8C00C4188C42F9D3094A094C002301E01360C4
:100B9C000432A242FBD302F047FAFFF7DFFD7047A5
:100BAC0000000020A0000020EC390008A00000206C
:100BBC0074020020FEE7000080B400AF144BDB6829
:100BCC00134A23F08073D360114BDB68104A43F057
:100BDC008073D3600F4B1B680E4A23F00103136024
:100BEC000C4B1B680B4A43F001031360094B0022AA
:100BFC005A6000BF00BF00BF064B5B68002B01D0E2
:100C0C00002300E001231846BD4680BC704700BF9E
:100C1C00F0ED00E0001000E080B582B000AF78602D
:100C2C007B682D221A707B6893F82330C3F3400342
:100C3C00DBB25B015AB27B6893F82330C3F38003B9
:100C4C00DBB21B015BB213435AB27B6893F82330BF
:100C5C00C3F3C003DBB2DB005BB213435AB27B6855
:100C6C0093F82330C3F30013DBB29B005BB2134346
:100C7C005AB27B6893F82330C3F34113DBB25BB2F7
:100C8C0013435BB2DAB27B685A707B68DB697968B4
:100C9C000222292098470346012B14BF012300236D
:100CAC00DBB218460837BD4680BD80B584B000AFB6
:100CBC0078607B6832221A707B68DB697968012264
:100CCC00292098470346012B14BF01230023DBB2D4
:100CDC00FB73FB7B002B01D0FB7B2AE07B689B69C1
:100CEC0079680622292098477B685B781B027A6812
:100CFC00127813431846FFF799FC02467B68DA60BA
:100D0C007B68DB781B027A68927813431846FFF7EE
:100D1C008DFC02467B681A617B685B791B027A68E2
:100D2C00127913431846FFF781FC02467B685A611F
:100D3C00FB7B18461037BD4680BD000080B584B0E3
:100D4C0000AF78600D4B5B68FB6002F003F9034663
:100D5C000B4AA2FB03239B0C7A6802FB03F37B6018
:100D6C0000BF064B5A68FB68D21A7B689A42F8D3CC
:100D7C0000BF00BF1037BD4680BD00BF001000E0B3
:100D8C0083DE1B4380B582B000AF0346FB80FB883B
:100D9C001846FFF7D3FF00BF0837BD4680BD80B4AF
:100DAC0083B000AF78600B46FB707B685B68DA68D9
:100DBC007B681B7A19460F238B40DB4319467B68F3
:100DCC005B680A40DA607B685B68DA68FB78796894
:100DDC00097A8B4019467B685B680A43DA6000BF6E
:100DEC000C37BD4680BC704780B582B000AF7860D0
:100DFC000B46FB707B6858697B681B8BFA7819462D
:100E0C0000F09CFC00BF0837BD4680BD80B582B0A9
:100E1C0000AF78600B46FB707B68D8687B681B8AD8
:100E2C00FA78194600F08AFC00BF0837BD4680BD31
:100E3C0080B586B000AF786007F1080300221A6015
:100E4C005A609A60DA607B681B8BBB600123FB6085
:100E5C0002237B617B685B6907F108021146184627
:100E6C0000F0E8FA7B681B8ABB607B68DB6807F1E3
:100E7C0008021146184600F0DDFA7B681B7A1A4608
:100E8C000F239340BB607B685B6807F10802114637
:100E9C00184600F0CFFA00BF1837BD4680BD80B5AC
:100EAC0082B000AF78600B46FB701346BB70FB78CA
:100EBC0019467868FFF798FFBB781B09DBB2194617
:100ECC007868FFF76CFF01217868FFF79FFF0A2015
:100EDC00FFF758FF00217868FFF798FF6420FFF7B1
:100EEC0051FFBB7819467868FFF759FF01217868E4
:100EFC00FFF78CFF0A20FFF745FF00217868FFF70A
:100F0C0085FF6420FFF73EFF00BF0837BD4680BD5C
:100F1C0080B584B000AF78600B46FB701346BB7095
:100F2C00FFF74AFE7868FFF783FF7B6800229A760A
:100F3C007B684022DA767B68BA781A77BB784033C4
:100F4C00DAB27B685A7700217868FFF74DFF0021F1
:100F5C007868FFF75BFF4CF25030FFF713FF00236C
:100F6C00FB7318E003217868FFF719FF01217868FB
:100F7C00FFF74CFF0A20FFF705FF00217868FFF709
:100F8C0045FF6420FFF7FEFE41F29410FFF7FAFED6
:100F9C00FB7B0133FB73FB7B012BE3D903217868CB
:100FAC00FFF7FDFE01217868FFF730FF0A20FFF7FD
:100FBC00E9FE00217868FFF729FF6420FFF7E2FEC5
:100FCC009620FFF7DFFE02217868FFF7E8FE01218B
:100FDC007868FFF71BFF0A20FFF7D4FE0021786822
:100FEC00FFF714FF6420FFF7CDFE2822002178685C
:100FFC00FFF755FF002300220121786800F06DF8FF
:10100C00786800F059F800BF1037BD4680BD80B538
:10101C0082B000AF78600B46FB701346BB70FB7858
:10102C007A6813449A7EBB781344DBB25BB263F0EC
:10103C007F035BB2DBB21A4600217868FFF72FFF03
:10104C0000BF0837BD4680BD80B586B000AFF860E4
:10105C00B9601346FB710023FB750BE0BB685A1C8F
:10106C00BA601B781A460121F868FFF718FFFB7D60
:10107C000133FB75FA7DFB799A42EFD300BF00BFB9
:10108C001837BD4680BD80B584B000AFF8607B607A
:10109C000B46FB721346BB72BA7AFB7A1946F86898
:1010AC00FFF7B5FF3B7E1A467968F868FFF7CCFF6F
:1010BC0000BF1037BD4680BD80B582B000AF7860F0
:1010CC00012200217868FFF7EAFE4FF4FA60FFF77F
:1010DC0059FE00BF0837BD4680BD80B582B000AF59
:1010EC007860084611461A460346FB700B46BB70E7
:1010FC0013467B707B6800229A77FB78002B06D016
:10110C007B689B7F43F00403DAB27B689A77BB78E9
:10111C00002B06D07B689B7F43F00203DAB27B681E
:10112C009A777B78002B06D07B689B7F43F001037A
:10113C00DAB27B689A777B689B7F43F00403DAB260
:10114C007B689A777B689B7F43F00803DBB21A4677
:10115C0000217868FFF7A3FE00BF0837BD4680BDAD
:10116C0080B500AF084B1B68074A43F010031360AF
:10117C00032000F02BF90F2000F008F8FFF71EFCFD
:10118C000023184680BD00BF0020024080B582B00D
:10119C0000AF7860124B1A68124B1B7819464FF44B
:1011AC007A73B3FBF1F3B2FBF3F3184600F035F9A5
:1011BC000346002B01D001230EE07B680F2B0AD8CD
:1011CC00002279684FF0FF3000F00BF9064A7B687B
:1011DC001360002300E0012318460837BD4680BD8C
:1011EC00440000204C0000204800002080B400AFD8
:1011FC00054B1B781A46054B1B681344034A1360B6
:10120C0000BFBD4680BC70474C0000202801002068
:10121C0080B400AF024B1B681846BD4680BC7047BB
:10122C002801002080B584B000AF7860FFF7F0FF94
:10123C00B8607B68FB60FB68B3F1FF3F05D00A4BDD
:10124C001B781A46FB681344FB6000BFFFF7E0FFF6
:10125C000246BB68D31AFA689A42F7D800BF00BF9F
:10126C001037BD4680BD00BF4C00002080B485B057
:10127C0000AF78607B6803F00703FB600C4BDB6806
:10128C00BB60BA684FF6FF031340BB60FB681A02E1
:10129C00BB68134343F0BF6343F40033BB60044AA1
:1012AC00BB68D36000BF1437BD4680BC704700BF1D
:1012BC0000ED00E080B400AF044BDB681B0A03F0C8
:1012CC0007031846BD4680BC704700BF00ED00E028
:1012DC0080B483B000AF03463960FB7197F90730D7
:1012EC00002B0ADB3B68DAB20C4997F90730120184
:1012FC00D2B20B4483F800230AE03B68DAB2084907
:10130C00FB7903F00F03043B1201D2B20B441A76A3
:10131C0000BF0C37BD4680BC704700BF00E100E049
:10132C0000ED00E080B489B000AFF860B9607A607D
:10133C00FB6803F00703FB61FB69C3F10703042B94
:10134C0028BF0423BB61FB690433062B02D9FB695C
:10135C00033B00E000237B614FF0FF32BB6902FAD4
:10136C0003F3DA43BB681A407B699A404FF0FF31B4
:10137C007B6901FA03F3D9437B680B40134318468E
:10138C002437BD4680BC704780B582B000AF786012
:10139C007B68013BB3F1807F01D301230FE00A4A44
:1013AC007B68013B53600F214FF0FF30FFF790FF3C
:1013BC00054B00229A60044B07221A600023184642
:1013CC000837BD4680BD00BF10E000E080B582B09C
:1013DC0000AF78607868FFF749FF00BF0837BD465B
:1013EC0080BD80B586B000AF0346B9607A60FB73F0
:1013FC0000237B61FFF75EFF78617A68B9687869D2
:10140C00FFF790FF024697F90F3011461846FFF789
:10141C005FFF00BF1837BD4680BD80B582B000AFFE
:10142C0078607868FFF7B0FF034618460837BD466A
:10143C0080BD000080B48BB000AF786039600023B1
:10144C007B6200233B6269E101227B6A02FA03F3AF
:10145C00FB613B681B68FA691340BB61BA69FB69A5
:10146C009A4240F058813B685B689A4A93425ED03E
:10147C00984A934275D8984A934258D0964A9342C8
:10148C006FD8964A934252D0944A934269D8944A60
:10149C0093424CD0924A934263D8924A934246D09C
:1014AC00904A93425DD8122B2AD8122B59D801A2FC
:1014BC0052F823F03B1500081515000827150008F5
:1014CC00691500086F1500086F1500086F150008E6
:1014DC006F1500086F1500086F1500086F150008D0
:1014EC006F1500086F1500086F1500086F150008C0
:1014FC006F1500086F1500081D1500083115000840
:10150C00794A934213D02CE03B68DB683B6229E0BC
:10151C003B68DB6804333B6224E03B68DB680833E0
:10152C003B621FE03B68DB680C333B621AE03B68B4
:10153C009B68002B02D104233B6213E03B689B6841
:10154C00012B05D108233B627B68FA691A6109E01B
:10155C0008233B627B68FA695A6103E000233B6213
:10156C0000E000BFBB69FF2B01D87B6801E07B6802
:10157C0004337B61BB69FF2B02D87B6A9B0002E0C2
:10158C007B6A083B9B003B617B691A680F213B69B6
:10159C0001FA03F3DB431A40396A3B6901FA03F39E
:1015AC001A437B691A603B685B6803F08053002B1D
:1015BC0000F0B1804D4B9B694C4A43F001039361A1
:1015CC004A4B9B6903F00103BB60BB68484A7B6ACA
:1015DC009B08023352F82330FB607B6A03F0030351
:1015EC009B000F2202FA03F3DB43FA681340FB6003
:1015FC007B68404A934213D07B683F4A93420DD09C
:10160C007B683E4A934207D07B683D4A934201D1A6
:10161C00032306E0042304E0022302E0012300E09C
:10162C0000237A6A02F0030292009340FA68134393
:10163C00FB602F497B6A9B080233FA6841F8232030
:10164C003B685B6803F48013002B06D02D4B9A6823
:10165C002C49BB6913438B6006E02A4B9A68BB6923
:10166C00DB43284913408B603B685B6803F4001331
:10167C00002B06D0234BDA682249BB691343CB609D
:10168C0006E0204BDA68BB69DB431E491340CB6094
:10169C003B685B6803F40033002B06D0194B5A6887
:1016AC001849BB6913434B6006E0164B5A68BB697B
:1016BC00DB43144913404B603B685B6803F4803395
:1016CC00002B21D00F4B1A680E49BB6913430B60DA
:1016DC0021E000BF00003210000031100000221089
:1016EC000000211000001210000011100010024028
:1016FC000000014000080140000C014000100140B6
:10170C0000140140000401400B4B1A68BB69DB4319
:10171C00094913400B607B6A01337B623B681A6892
:10172C007B6A22FA03F3002B7FF48EAE00BF00BF5E
:10173C002C37BD4680BC70470004014080B483B098
:10174C0000AF78600B467B8013467B707B78002B58
:10175C0003D07A887B681A6103E07B881A047B6863
:10176C001A6100BF0C37BD4680BC704780B584B091
:10177C0000AF78607B68002B01D101232BE17B68E3
:10178C0093F83D30DBB2002B06D17B68002283F846
:10179C003C207868FFF744F97B68242283F83D20CD
:1017AC007B681B681A687B681B6822F001021A6050
:1017BC007B681B681A687B681B6842F400421A60DD
:1017CC007B681B681A687B681B6822F400421A60ED
:1017DC0001F0CAFBF8607B685B68814A934207D8CA
:1017EC00FB68804A934294BF01230023DBB206E0DE
:1017FC00FB687D4A934294BF01230023DBB2002B8C
:10180C0001D00123E7E0FB68784AA2FB03239B0C81
:10181C00BB607B681B685B6823F03F017B681B68BF
:10182C00BA680A435A607B681B681B6A23F03F0145
:10183C007B685B686A4A934202D8BB68013309E053
:10184C00BB684FF4967202FB03F3694AA2FB0323B5
:10185C009B0901337A6812680B4313627B681B681F
:10186C00DB6923F44F4222F0FF027B685B685C4922
:10187C008B4219D8FB68591E7B685B685B00B1FB17
:10188C00F3F3591C40F6FC730B40002B0AD0FB6899
:10189C00591E7B685B685B00B1FBF3F30133C3F348
:1018AC000B0351E004234FE07B689B68002B11D1A4
:1018BC00FB68581E7B6859680B465B000B44B0FBF9
:1018CC00F3F30133C3F30B03002B0CBF01230023F1
:1018DC00DBB212E0FB68581E7B6859680B469B0014
:1018EC000B4499000B44B0FBF3F30133C3F30B032C
:1018FC00002B0CBF01230023DBB2002B01D00123F2
:10190C0022E07B689B68002B0ED1FB68581E7B681D
:10191C0059680B465B000B44B0FBF3F30133C3F384
:10192C000B0343F400430FE0FB68581E7B685968B7
:10193C000B469B000B4499000B44B0FBF3F30133B3
:10194C00C3F30B0343F44043796809681343CB6139
:10195C007B681B681B6823F0C0017B68DA697B68B5
:10196C001B6A1A437B681B680A431A607B681B68F6
:10197C009B6823F4034323F0FF037A6811697A68A8
:10198C00D26811437A6812680B4393607B681B68BA
:10199C00DB6823F0FF017B685A697B689B691A43FB
:1019AC007B681B680A43DA607B681B681A687B6873
:1019BC001B6842F001021A607B6800221A647B6883
:1019CC00202283F83D207B6800221A637B6800226A
:1019DC0083F83E20002318461037BD4680BD00BF5B
:1019EC00A08601007F841E00FF083D0083DE1B43A0
:1019FC00D34D621080B588B002AFF8607A601A4699
:101A0C000B467B8113463B81FFF702FC7861FB6838
:101A1C0093F83D30DBB2202B40F0E0807B690093E3
:101A2C00192301227049F86800F09EFC0346002B34
:101A3C0001D00223D3E0FB6893F83C30012B01D199
:101A4C000223CCE0FB68012283F83C20FB681B6876
:101A5C001B6803F00103012B07D0FB681B681A6895
:101A6C00FB681B6842F001021A60FB681B681A686D
:101A7C00FB681B6822F400621A60FB68212283F861
:101A8C003D20FB68102283F83E20FB6800221A647C
:101A9C00FB687A685A62FB683A895A85FB685B8DE9
:101AAC009AB2FB681A85FB68504ADA6279897B69BD
:101ABC003A6AF86800F008FB0346002B01D00123BA
:101ACC008DE000233B61FB681B685B693B61FB6835
:101ADC001B689B693B613B6966E07A69396AF86807
:101AEC0000F05CFD0346002B0DD0FB681B6C042B37
:101AFC0007D1FB681B681A68FB681B6842F400720C
:101B0C001A6001236BE0FB685B6A1A78FB681B6840
:101B1C001A61FB685B6A5A1CFB685A62FB685B8D36
:101B2C009BB2013B9AB2FB685A85FB681B8D013B4B
:101B3C009AB2FB681A85FB681B685B6903F00403A7
:101B4C00042B1BD1FB681B8D002B17D0FB685B6A29
:101B5C001A78FB681B681A61FB685B6A5A1CFB6885
:101B6C005A62FB685B8D9BB2013B9AB2FB685A854B
:101B7C00FB681B8D013B9AB2FB681A857A69396A3E
:101B8C00F86800F053FD0346002B0DD0FB681B6C6E
:101B9C00042B07D1FB681B681A68FB681B6842F4AE
:101BAC0000721A6001231AE0FB681B8D002B94D184
:101BBC00FB681B681A68FB681B6842F400721A60A9
:101BCC00FB68202283F83D20FB68002283F83E202E
:101BDC00FB68002283F83C20002300E00223184617
:101BEC001837BD4680BD00BF020010000000FFFF8B
:101BFC0080B58CB002AFF8607A601A460B467B81D8
:101C0C0013463B8100233B62FFF702FB7862FB68C3
:101C1C0093F83D30DBB2202B40F04B827B6A009373
:101C2C00192301227F49F86800F09EFB0346002B24
:101C3C0001D002233EE2FB6893F83C30012B01D12A
:101C4C00022337E2FB68012283F83C20FB681B6807
:101C5C001B6803F00103012B07D0FB681B681A6893
:101C6C00FB681B6842F001021A60FB681B681A686B
:101C7C00FB681B6822F400621A60FB68222283F85E
:101C8C003D20FB68102283F83E20FB6800221A647A
:101C9C00FB687A685A62FB683A895A85FB685B8DE7
:101CAC009AB2FB681A85FB685F4ADA6279897B6AAB
:101CBC003A6BF86800F08AFA0346002B01D0012336
:101CCC00F8E1FB681B8D002B13D10023FB61FB6833
:101CDC001B685B69FB61FB681B689B69FB61FB69AB
:101CEC00FB681B681A68FB681B6842F400721A6078
:101CFC00CCE1FB681B8D012B1ED1FB681B681A689D
:101D0C00FB681B6822F480621A6072B600BF002365
:101D1C00BB61FB681B685B69BB61FB681B689B69EB
:101D2C00BB61BB69FB681B681A68FB681B6842F4E3
:101D3C0000721A6062B635E0FB681B8D022B1ED157
:101D4C00FB681B681A68FB681B6842F400621A6027
:101D5C0072B600BF00237B61FB681B685B697B610B
:101D6C00FB681B689B697B617B69FB681B681A6855
:101D7C00FB681B6822F480621A6062B612E0FB6892
:101D8C001B681A68FB681B6842F480621A600023A7
:101D9C003B61FB681B685B693B61FB681B689B696B
:101DAC003B613B6972E1FB681B8D032B00F21F81C9
:101DBC00FB681B8D012B23D17A6A396BF86800F014
:101DCC007DFC0346002B01D0012373E1FB681B68EB
:101DDC001A69FB685B6AD2B21A70FB685B6A5A1CA0
:101DEC00FB685A62FB681B8D013B9AB2FB681A8533
:101DFC00FB685B8D9BB2013B9AB2FB685A8545E14F
:101E0C00FB681B8D022B52D17B6A00933B6B00222B
:101E1C000649F86800F0A8FA0346002B08D0012305
:101E2C0048E100BF020010000000FFFF04000100A9
:101E3C0072B600BFFB681B681A68FB681B6842F42B
:101E4C0000721A60FB681B681A69FB685B6AD2B285
:101E5C001A70FB685B6A5A1CFB685A62FB681B8D24
:101E6C00013B9AB2FB681A85FB685B8D9BB2013B08
:101E7C009AB2FB685A8562B600BFFB681B681A6988
:101E8C00FB685B6AD2B21A70FB685B6A5A1CFB680F
:101E9C005A62FB681B8D013B9AB2FB681A85FB6882
:101EAC005B8D9BB2013B9AB2FB685A85EEE07B6A74
:101EBC0000933B6B00228149F86800F055FA034609
:101ECC00002B01D00123F5E0FB681B681A68FB6846
:101EDC001B6822F480621A6072B600BFFB681B6834
:101EEC001A69FB685B6AD2B21A70FB685B6A5A1C8F
:101EFC00FB685A62FB681B8D013B9AB2FB681A8522
:101F0C00FB685B8D9BB2013B9AB2FB685A856C4BAC
:101F1C001B68DB086B4AA2FB03231A0A13469B00BF
:101F2C001344DA00D31A3B623B6A013B3B623B6AC7
:101F3C00002B18D1FB6800221A63FB68202283F85F
:101F4C003D20FB68002283F83E20FB681B6C43F0AD
:101F5C002002FB681A6462B600BFFB68002283F89B
:101F6C003C200123A6E0FB681B685B6903F00403BB
:101F7C00042BD9D1FB681B681A68FB681B6842F4F8
:101F8C0000721A60FB681B681A69FB685B6AD2B244
:101F9C001A70FB685B6A5A1CFB685A62FB681B8DE3
:101FAC00013B9AB2FB681A85FB685B8D9BB2013BC7
:101FBC009AB2FB685A8562B600BFFB681B681A6947
:101FCC00FB685B6AD2B21A70FB685B6A5A1CFB68CE
:101FDC005A62FB681B8D013B9AB2FB681A85FB6841
:101FEC005B8D9BB2013B9AB2FB685A854EE07A6AD4
:101FFC00396BF86800F062FB0346002B01D001231B
:10200C0058E0FB681B681A69FB685B6AD2B21A70ED
:10201C00FB685B6A5A1CFB685A62FB681B8D013BB0
:10202C009AB2FB681A85FB685B8D9BB2013B9AB236
:10203C00FB685A85FB681B685B6903F00403042B7F
:10204C0024D1FB681B8D032B07D1FB681B681A6816
:10205C00FB681B6822F480621A60FB681B681A69B3
:10206C00FB685B6AD2B21A70FB685B6A5A1CFB682D
:10207C005A62FB681B8D013B9AB2FB681A85FB68A0
:10208C005B8D9BB2013B9AB2FB685A85FB681B8D3A
:10209C00002B7FF488AEFB68202283F83D20FB6880
:1020AC00002283F83E20FB68002283F83C200023AA
:1020BC0000E0022318462837BD4680BD040001000D
:1020CC004400002089B5F81480B588B002AFF860E0
:1020DC007A603B600B467B81FB68DB6A7B617B69CA
:1020EC00082B06D07B69012B03D07B6913F5803F4D
:1020FC0008D1FB681B681A68FB681B6842F4807285
:10210C001A600BE0FB681B6B122B07D1FB681B687A
:10211C001A68FB681B6842F480721A603B68009373
:10212C007B6800224FF00111F86800F01DF903469E
:10213C00002B0DD0FB681B681B6803F48073B3F590
:10214C00807F03D1FB684FF400721A64032335E0DF
:10215C00FB681B69B3F5804F08D17B89DBB21A464B
:10216C00FB681B6802F0FE021A611BE07B89DB1125
:10217C00DBB203F00603DBB263F00F03DAB2FB68E9
:10218C001B681A613B687A680E49F86800F066F9BA
:10219C000346002B01D0012310E07B89DAB2FB68E7
:1021AC001B681A613B687A680749F86800F056F9B1
:1021BC000346002B01D0012300E0002318461837FA
:1021CC00BD4680BD080001000200010080B588B04A
:1021DC0002AFF8607A603B600B467B81FB68DB6A80
:1021EC007B61FB681B681A68FB681B6842F48062A1
:1021FC001A607B69082B06D07B69012B03D07B69A5
:10220C0013F5803F08D1FB681B681A68FB681B68D4
:10221C0042F480721A600BE0FB681B6B112B07D128
:10222C00FB681B681A68FB681B6842F480721A60B2
:10223C003B6800937B6800224FF00111F86800F0B6
:10224C0093F80346002B0DD0FB681B681B6803F446
:10225C008073B3F5807F03D1FB684FF400721A646E
:10226C00032379E0FB681B69B3F5804F08D17B89A8
:10227C00DBB243F00103DAB2FB681B681A615FE062
:10228C007B89DB11DBB203F00603DBB263F00F03D7
:10229C00DAB2FB681B681A613B687A683049F868E7
:1022AC0000F0DCF80346002B01D0012354E07B89BD
:1022BC00DAB2FB681B681A613B687A682949F868CE
:1022CC0000F0CCF80346002B01D0012344E000239E
:1022DC003B61FB681B685B693B61FB681B689B6926
:1022EC003B613B69FB681B681A68FB681B6842F41E
:1022FC0080721A603B6800937B6800224FF00111DA
:10230C00F86800F031F80346002B0DD0FB681B6811
:10231C001B6803F48073B3F5807F03D1FB684FF423
:10232C0000721A64032317E07B89DB11DBB203F024
:10233C000603DBB263F00E03DAB2FB681B681A61AA
:10234C003B687A680749F86800F088F80346002B68
:10235C0001D0012300E0002318461837BD4680BD8C
:10236C00080001000200010080B584B000AFF860E5
:10237C00B9603B601346FB7148E03B68B3F1FF3F2B
:10238C0044D0FEF745FF0246BB69D31A3A689A421D
:10239C0002D33B68002B39D1BB681B0CDBB2012B81
:1023AC000DD1FB681B685B69DA43BB6813409BB2B9
:1023BC00002B0CBF01230023DBB21A460CE0FB6898
:1023CC001B689B69DA43BB6813409BB2002B0CBFA4
:1023DC0001230023DBB21A46FB799A4216D1FB6823
:1023EC0000221A63FB68202283F83D20FB68002240
:1023FC0083F83E20FB681B6C43F02002FB681A64D8
:10240C00FB68002283F83C20012323E0BB681B0CF3
:10241C00DBB2012B0DD1FB681B685B69DA43BB682F
:10242C0013409BB2002B0CBF01230023DBB21A46D6
:10243C000CE0FB681B689B69DA43BB6813409BB2DA
:10244C00002B0CBF01230023DBB21A46FB799A4206
:10245C0093D0002318461037BD4680BD80B584B09C
:10246C0000AFF860B9607A603B6071E0FB681B6894
:10247C005B6903F48063B3F5806F23D1FB681B6841
:10248C001A68FB681B6842F400721A60FB681B68D0
:10249C006FF480625A61FB6800221A63FB68202289
:1024AC0083F83D20FB68002283F83E20FB681B6C00
:1024BC0043F00402FB681A64FB68002283F83C209A
:1024CC00012367E07B68B3F1FF3F41D0FEF7A0FE2C
:1024DC0002463B68D31A7A689A4202D37B68002B77
:1024EC0036D1BB681B0CDBB2012B0CD1FB681B6813
:1024FC005B69DA43BB6813409BB2002B14BF01230A
:10250C000023DBB20BE0FB681B689B69DA43BB68FA
:10251C0013409BB2002B14BF01230023DBB2002B12
:10252C0016D0FB6800221A63FB68202283F83D203A
:10253C00FB68002283F83E20FB681B6C43F02002F2
:10254C00FB681A64FB68002283F83C20012321E01D
:10255C00BB681B0CDBB2012B0CD1FB681B685B69E5
:10256C00DA43BB6813409BB2002B14BF012300233A
:10257C00DBB20BE0FB681B689B69DA43BB6813405A
:10258C009BB2002B14BF01230023DBB2002B7FF482
:10259C006DAF002318461037BD4680BD80B584B0A2
:1025AC0000AFF860B9607A6034E0F86800F0E3F8E6
:1025BC000346002B01D0012334E0BB68B3F1FF3F8D
:1025CC0028D0FEF725FE02467B68D31ABA689A42D9
:1025DC0002D3BB68002B1DD1FB681B685B6903F041
:1025EC008003802B16D0FB6800221A63FB68202224
:1025FC0083F83D20FB68002283F83E20FB681B6CAF
:10260C0043F02002FB681A64FB68002283F83C202C
:10261C00012307E0FB681B685B6903F08003802BD8
:10262C00C3D1002318461037BD4680BD80B584B099
:10263C0000AFF860B9607A6034E0F86800F09BF89D
:10264C000346002B01D0012334E0BB68B3F1FF3FFC
:10265C0028D0FEF7DDFD02467B68D31ABA689A4291
:10266C0002D3BB68002B1DD1FB681B685B6903F0B0
:10267C000403042B16D0FB6800221A63FB6820228B
:10268C0083F83D20FB68002283F83E20FB681B6C1E
:10269C0043F02002FB681A64FB68002283F83C209C
:1026AC00012307E0FB681B685B6903F00403042B40
:1026BC00C3D1002318461037BD4680BD80B584B009
:1026CC0000AFF860B9607A6049E0FB681B685B6931
:1026DC0003F01003102B19D1FB681B686FF010026C
:1026EC005A61FB6800221A63FB68202283F83D20A4
:1026FC00FB68002283F83E20FB681A6CFB681A64A6
:10270C00FB68002283F83C20012330E0FEF780FDBB
:10271C0002467B68D31ABA689A4202D3BB68002B74
:10272C001DD1FB681B685B6903F04003402B16D07E
:10273C00FB6800221A63FB68202283F83D20FB68AB
:10274C00002283F83E20FB681B6C43F02002FB68E0
:10275C001A64FB68002283F83C20012307E0FB6825
:10276C001B685B6903F04003402BAED10023184675
:10277C001037BD4680BD80B483B000AF78607B68F5
:10278C001B685B6903F48063B3F5806F1BD17B68B6
:10279C001B686FF480625A617B6800221A637B6845
:1027AC00202283F83D207B68002283F83E207B6842
:1027BC001B6C43F004027B681A647B68002283F86C
:1027CC003C20012300E0002318460C37BD4680BC9A
:1027DC007047000080B586B000AF78607B68002B36
:1027EC0001D1012372E27B681B6803F00103002B0B
:1027FC0000F08780924B5B6803F00C03042B0CD029
:10280C008F4B5B6803F00C03082B12D18C4B5B686D
:10281C0003F48033B3F5803F0BD1894B1B6803F471
:10282C000033002B6CD07B685B68002B68D10123D4
:10283C004CE27B685B68B3F5803F06D1804B1B682C
:10284C007F4A43F4803313602EE07B685B68002B77
:10285C000CD17B4B1B687A4A23F480331360784B82
:10286C001B68774A23F4802313601DE07B685B6848
:10287C00B3F5A02F0CD1724B1B68714A43F4802323
:10288C0013606F4B1B686E4A43F4803313600BE08C
:10289C006B4B1B686A4A23F480331360684B1B68CC
:1028AC00674A23F4802313607B685B68002B13D08A
:1028BC00FEF7AEFC386108E0FEF7AAFC02463B6965
:1028CC00D31A642B01D9032300E25D4B1B6803F47C
:1028DC000033002BF0D014E0FEF79AFC386108E0CE
:1028EC00FEF796FC02463B69D31A642B01D90323ED
:1028FC00ECE1534B1B6803F40033002BF0D100E0E8
:10290C0000BF7B681B6803F00203002B63D04C4BA9
:10291C005B6803F00C03002B0BD0494B5B6803F096
:10292C000C03082B1CD1464B5B6803F48033002B43
:10293C0016D1434B1B6803F00203002B05D07B68B8
:10294C001B69012B01D00123C0E13D4B1B6823F017
:10295C00F8027B685B69DB00394913430B603AE092
:10296C007B681B69002B20D0364B01221A60FEF7C6
:10297C004FFC386108E0FEF74BFC02463B69D31A6A
:10298C00022B01D90323A1E12D4B1B6803F0020399
:10299C00002BF0D02A4B1B6823F0F8027B685B6994
:1029AC00DB00274913430B6015E0264B00221A600D
:1029BC00FEF72EFC386108E0FEF72AFC02463B6964
:1029CC00D31A022B01D9032380E11D4B1B6803F0A2
:1029DC000203002BF0D17B681B6803F00803002B6B
:1029EC003AD07B689B69002B19D0174B01221A60D7
:1029FC00FEF70EFC386108E0FEF70AFC02463B6964
:102A0C00D31A022B01D9032360E10D4B5B6A03F04F
:102A1C000203002BF0D0012000F0BAFA1CE00A4BA4
:102A2C0000221A60FEF7F4FB38610FE0FEF7F0FBB2
:102A3C0002463B69D31A022B08D9032346E100BF97
:102A4C00001002400000424280044242924B5B6AFA
:102A5C0003F00203002BE9D17B681B6803F004032D
:102A6C00002B00F0A6800023FB758B4BDB6903F079
:102A7C008053002B0DD1884BDB69874A43F0805380
:102A8C00D361854BDB6903F08053BB60BB680123CA
:102A9C00FB75824B1B6803F48073002B18D17F4BA2
:102AAC001B687E4A43F480731360FEF7B1FB3861F8
:102ABC0008E0FEF7ADFB02463B69D31A642B01D943
:102ACC00032303E1754B1B6803F48073002BF0D0D8
:102ADC007B68DB68012B06D16F4B1B6A6E4A43F097
:102AEC00010313622DE07B68DB68002B0CD16A4B71
:102AFC001B6A694A23F001031362674B1B6A664A1F
:102B0C0023F0040313621CE07B68DB68052B0CD1FB
:102B1C00614B1B6A604A43F0040313625E4B1B6AF1
:102B2C005D4A43F0010313620BE05B4B1B6A5A4A8C
:102B3C0023F001031362584B1B6A574A23F004031A
:102B4C0013627B68DB68002B15D0FEF761FB3861E4
:102B5C000AE0FEF75DFB02463B69D31A41F288326C
:102B6C00934201D90323B1E04B4B1B6A03F00203E0
:102B7C00002BEED014E0FEF74BFB38610AE0FEF7B9
:102B8C0047FB02463B69D31A41F28832934201D982
:102B9C0003239BE0404B1B6A03F00203002BEED196
:102BAC00FB7D012B05D13C4BDB693B4A23F0805369
:102BBC00D3617B68DB69002B00F08780364B5B6848
:102BCC0003F00C03082B61D07B68DB69022B46D128
:102BDC00334B00221A60FEF71BFB386108E0FEF74E
:102BEC0017FB02463B69D31A022B01D903236DE074
:102BFC00294B1B6803F00073002BF0D17B681B6A18
:102C0C00B3F5803F08D1244B5B6823F400327B681A
:102C1C009B68214913434B601F4B5B6823F4741270
:102C2C007B68196A7B685B6A0B431B4913434B60D7
:102C3C001B4B01221A60FEF7EBFA386108E0FEF735
:102C4C00E7FA02463B69D31A022B01D903233DE074
:102C5C00114B1B6803F00073002BF0D035E0104BC8
:102C6C0000221A60FEF7D4FA386108E0FEF7D0FAB9
:102C7C0002463B69D31A022B01D9032326E0064BEB
:102C8C001B6803F00073002BF0D11EE07B68DB693E
:102C9C00012B07D1012319E0001002400070004005
:102CAC00600042420B4B5B68FB60FB6803F48032B4
:102CBC007B681B6A9A4206D1FB6803F470127B682E
:102CCC005B6A9A4201D0012300E0002318461837B2
:102CDC00BD4680BD0010024080B584B000AF786066
:102CEC0039607B68002B01D10123D0E06A4B1B6853
:102CFC0003F007033A689A4210D9674B1B6823F01C
:102D0C00070265493B6813430B60634B1B6803F078
:102D1C0007033A689A4201D00123B8E07B681B682C
:102D2C0003F00203002B20D07B681B6803F0040324
:102D3C00002B05D0594B5B68584A43F4E063536051
:102D4C007B681B6803F00803002B05D0534B5B68B2
:102D5C00524A43F460535360504B5B6823F0F002CB
:102D6C007B689B684D4913434B607B681B6803F081
:102D7C000103002B40D07B685B68012B07D1474BCC
:102D8C001B6803F40033002B15D101237FE07B6813
:102D9C005B68022B07D1414B1B6803F00073002BBF
:102DAC0009D1012373E03D4B1B6803F00203002B98
:102DBC0001D101236BE0394B5B6823F003027B6884
:102DCC005B68364913434B60FEF722FAF8600AE061
:102DDC00FEF71EFA0246FB68D31A41F28832934280
:102DEC0001D9032353E02D4B5B6803F00C027B6885
:102DFC005B689B009A42EBD1274B1B6803F00703DF
:102E0C003A689A4210D2244B1B6823F007022249DD
:102E1C003B6813430B60204B1B6803F007033A68B5
:102E2C009A4201D0012332E07B681B6803F0040353
:102E3C00002B08D0194B5B6823F4E0627B68DB68DD
:102E4C00164913434B607B681B6803F00803002B87
:102E5C0009D0124B5B6823F460527B681B69DB0062
:102E6C000E4913434B6000F021F802460B4B5B6894
:102E7C001B0903F00F030A49CB5C22FA03F3094A3E
:102E8C001360094B1B681846FEF780F9002318469F
:102E9C001037BD4680BD00BF00200240001002402C
:102EAC0084390008440000204800002080B487B01A
:102EBC0000AF0023FB600023BB6000237B61002379
:102ECC007B6000233B611E4B5B68FB60FB6803F07F
:102EDC000C03042B02D0082B03D027E0194B3B61C9
:102EEC0027E0FB689B0C03F00F03174AD35C7B6055
:102EFC00FB6803F48033002B10D0114B5B685B0C28
:102F0C0003F00103114AD35CBB607B680D4A03FBE1
:102F1C0002F2BB68B2FBF3F37B6104E07B680C4A02
:102F2C0002FB03F37B617B693B6102E0054B3B6178
:102F3C0000BF3B6918461C37BD4680BC704700BFBC
:102F4C000010024000127A009C390008AC390008CD
:102F5C0000093D0080B400AF024B1B681846BD460B
:102F6C0080BC70474400002080B500AFFFF7F2FF33
:102F7C000246054B5B681B0A03F007030349CB5C55
:102F8C0022FA03F3184680BD001002409439000861
:102F9C0080B485B000AF78600A4B1B680A4AA2FB6C
:102FAC0003235B0A7A6802FB03F3FB6000BFFB6838
:102FBC005A1EFA60002BF9D100BF00BF1437BD4672
:102FCC0080BC704744000020D34D62100EB46FF0EB
:102FDC00004100B59CB01DAB029006900791049186
:102FEC000848094953F8042B0591006802A901937C
:102FFC0000F092F90022029B1A701CB05DF804EBF1
:10300C0003B07047500000200802FFFF0346024443
:10301C00934200D1704703F8011BF9E7014B186884
:10302C00704700BF5000002070B500260C4D0D4CB1
:10303C00641BA410A64209D100F078FC00260A4DAE
:10304C000A4C641BA410A64205D170BD55F8043B74
:10305C0098470136EEE755F8043B98470136F2E7FE
:10306C00E4390008E4390008E4390008E8390008BC
:10307C007047704738B50546002940D051F8043CDC
:10308C000C1F002BB8BFE41800F0DEF81C4A1368C4
:10309C0033B9636014602846BDE8384000F0DAB8F4
:1030AC00A34208D9206821188B4201BF19685B68BC
:1030BC0009182160EDE71A465B680BB1A342FAD9F7
:1030CC0011685018A0420BD120680144501883425B
:1030DC001160E0D118685B68084410605360DAE74F
:1030EC0002D90C232B60D6E7206821188B4201BF34
:1030FC0019685B680918216063605460CBE738BDC0
:10310C007002002070B50F4E0C463168054611B99F
:10311C0000F0AAFB30602146284600F0A5FB431CBA
:10312C0003D14FF0FF34204670BDC41C24F00304BF
:10313C00A042F8D0211A284600F096FB0130F2D1BB
:10314C00EFE700BF6C0200202DE9F843CD1C25F001
:10315C00030508350C2D38BF0C25002D064601DB68
:10316C00A94204D90C2333600020BDE8F883DFF8B2
:10317C00D48000F069F8D8F800301C4644BB2946CE
:10318C003046FFF7BFFF431C044658D1D8F8004027
:10319C002746002F43D1002C4BD0236839463046AC
:1031AC0004EB030900F060FB814542D121683046F5
:1031BC006D1A2946FFF7A6FF01303AD023682B443D
:1031CC002360D8F800305A6862BBC8F800700FE072
:1031DC002268521B20D40B2A17D96119A3422560EF
:1031EC0018BF5960636808BFC8F8001062514B6083
:1031FC00304600F02FF804F10B00231D20F00700DF
:10320C00C21A1CBF1B1AA350AFE76268A3420CBFC3
:10321C00C8F800205A60EBE723466468AEE73C46EA
:10322C007F68B6E71A465B68A342FBD10023536064
:10323C00DEE70C233046336000F00CF894E70560B1
:10324C00D6E700BF700200200148FFF711BF00BF96
:10325C00680200200148FFF70CBF00BF6802002085
:10326C002DE9F0471F468E688246BE420C469046BA
:10327C000B682DD8B1F90C2012F4906F26D065692B
:10328C00096905EB4505A3EB010905EBD5757B1C1D
:10329C004B446D109D4238BF1D46530527D529461A
:1032AC00FFF752FF064660B34A46216900F0FAFA6E
:1032BC00A38923F4906343F08003A38126614E44D9
:1032CC0026603E466561A5EB0905A560BE4200D9A6
:1032DC003E4632464146206800F0ACFA0020A36816
:1032EC009B1BA360236833442360BDE8F0872A4608
:1032FC0000F0E6FA06460028E0D150462169FFF7B7
:10330C00B9FE0C23CAF80030A3894FF0FF3043F00C
:10331C004003A381E9E700002DE9F04F98468B8923
:10332C0007461B060D4614469DB010D50B6973B9A4
:10333C004021FFF709FF2860286130B90C233B605E
:10334C004FF0FF301DB0BDE8F08F40236B610023C0
:10335C00099320238DF8293030234FF00109CDF843
:10336C000C80DFF898818DF82A3023469A4613F8A2
:10337C00012B0AB1252AF9D1BAEB040B0BD05B4611
:10338C00224629463846FFF76BFF013000F0A78034
:10339C00099A5A4409929AF80030002B00F09F8049
:1033AC0000234FF0FF32CDE905230AF1010A049303
:1033BC0007938DF853301A935446052214F8011BC9
:1033CC004E4800F061FA049AD8B9D00644BF2023C5
:1033DC008DF85330110744BF2B238DF853309AF8D6
:1033EC0000302A2B15D0544600204FF00A0C079AB7
:1033FC00214611F8013B303B092B4BD9B0B1079258
:10340C0014E0A0EB080309FA03F31343A246049358
:10341C00D2E7039B191D1B680391002BBBBF5B42BA
:10342C0042F0020207930793B8BF049223782E2B25
:10343C000AD163782A2B32D1039B02341A1D1B68E4
:10344C00039243EAE3730593DFF8B4A003225046DA
:10345C00217800F019FA38B14022049BA0EB0A0045
:10346C00824013430134049314F8011B06222548AF
:10347C008DF8281000F008FA002836D0224B1BBB20
:10348C00039B073323F0070308330393099B33444F
:10349C0009936AE70C4601200CFB0232A8E70023D3
:1034AC004FF00A0C194601340593204610F8012BF5
:1034BC00303A092A03D9002BC6D00591C4E704463B
:1034CC0001230CFB0121F0E703AB00932A4638469D
:1034DC000E4B04A9AFF30080421C0646D6D1AB8933
:1034EC005B063FF52DAF09982CE703AB00932A46FA
:1034FC003846064B04A900F07DF8EDE7AE3900081C
:10350C00B4390008B8390008000000006D3200081A
:10351C002DE9F047164698468A680B690746934290
:10352C00B8BF1346336091F843200C46DDF8209069
:10353C000AB1013333602368990642BF3368023302
:10354C003360256815F0060506D104F1190AE36805
:10355C0032689B1AAB422BDC94F843302268003B58
:10356C0018BF0123920630D44146384604F1430279
:10357C00C847013023D02368226903F00603042BCB
:10358C0014BF002533684FF0000608BFE56804F14E
:10359C001A0408BFED1A54F8123C08BF25EAE57569
:1035AC009342C4BF9B1AED18B5421AD1002008E013
:1035BC000123524641463846C847013003D14FF0EB
:1035CC00FF30BDE8F0870135C1E73020E11881F804
:1035DC0043005A1C94F845102244023382F84310DD
:1035EC00C2E70123224641463846C8470130E6D09F
:1035FC000136D9E72DE9FF470F7E9146782F80469B
:10360C000C469A460C9E01F1430207D8622F0AD849
:10361C00002F00F0D380582F00F0BA8004F142063E
:10362C0084F842703AE0A7F16303152BF6D801A198
:10363C0051F823F099360008AD36000829360008F9
:10364C00293600082936000829360008AD3600084E
:10365C0029360008293600082936000829360008C2
:10366C00AF370008D736000869370008293600083C
:10367C0029360008D137000829360008D73600084B
:10368C0029360008293600087137000833681A1DDE
:10369C001B68326004F1420684F8423001239EE03C
:1036AC0033682068191D3160060601D51D6803E0DA
:1036BC004506FBD5B3F90050002D03DA2D236D42DE
:1036CC0084F843300A23594811E02168336808060E
:1036DC0053F8045B02D4490648BFADB26F2F336078
:1036EC0014BF0A2308235148002184F8431066684C
:1036FC00002EA8BF2168A660A4BF21F004012160A0
:10370C000DB9002E4BD01646B5FBF3F103FB115748
:10371C00C75D06F8017D2F46BB420D46F4D9082B38
:10372C000BD12368DF0708D5236961689942DEBF96
:10373C00302306F8013C06F1FF36921B22614B4602
:10374C0021464046CDF800A003AAFFF7E1FE013068
:10375C004AD14FF0FF3004B0BDE8F087236843F046
:10376C00200323607827324884F845702368316839
:10377C001F0651F8045B02D45F0648BFADB231603E
:10378C00D90744BF43F0200323601DB11023ABE7DE
:10379C002648E9E7236823F020032360F6E7164662
:1037AC00BDE733682568181D616930602E061B68FB
:1037BC0001D5196002E06806FBD519800023164676
:1037CC002361BCE7336800211A1D32601E686268F1
:1037DC00304600F059F808B1801B606063682361C3
:1037EC00002384F84330AAE7324649464046236911
:1037FC00D0470130ADD023689B0713D4E068039BFE
:10380C009842B8BF1846A6E70123324649464046BF
:10381C00D04701309DD00135E36803995B1AAB4268
:10382C00F2DCEBE7002504F11906F5E7BF390008D7
:10383C00D0390008884210B501EB020402D9844249
:10384C00234607D8431EA14208D011F8012B03F8D8
:10385C00012FF8E7014602448A4200D110BD13F84B
:10386C00014D02F8014DF7E738B50023054D04462C
:10387C0008462B60FDF73EF9431C02D12B6803B1BF
:10388C00236038BD64020020034610B5C9B202445F
:10389C009342184601D1002003E0047801338C4296
:1038AC00F6D110BD0A44914200F1FF3300D17047AC
:1038BC0010B511F8014B914203F8014FF9D110BD2D
:1038CC002DE9F041804615460C4621B91146BDE85C
:1038DC00F041FFF739BC2AB9FFF7CCFB0024204696
:1038EC00BDE8F08100F01AF88542064602D8B5EB27
:1038FC00500FF4D829464046FFF726FC074600280F
:10390C00ECD0B5422A46214628BF3246FFF7CAFF03
:10391C0021464046FFF7AEFB3C46E0E751F8043C3D
:10392C00181F002BBCBF0B58C0187047F8B500BF50
:10393C00F8BC08BC9E467047F8B500BFF8BC08BC84
:04394C009E467047DC
:10395000696E6974206F6B00696E6974206E6F6B9D
:1039600000000000583A2530326420593A253032A0
:1039700064205A3A25303264000000004572726FAC
:1039800072000000000000000000000001020304BB
:1039900006070809000000000102030402030405F1
:1039A000060708090A0B0C0D0E0F10100102232D3B
:1039B000302B2000686C4C00656667454647003038
:1039C0003132333435363738394142434445460085
:1039D0003031323334353637383961626364656685
:0439E00000000000E3
:0439E40031010008A5
:0439E8000D010008C5
:1039EC00000000000000010A0100000000000000BF
:1039FC000000000000000000E10600082507000898
:103A0C000000000900000000000801400000000058
:103A1C0000080140200000000008014010000000D8
:103A2C000000000000127A001000000001000000ED
:103A3C0054000020000000002C0100209401002004
:103A4C00FC0100200000000000000000000000004D
:103A5C00000000000000000000000000000000005A
:103A6C00000000000000000000000000000000004A
:103A7C00000000000000000000000000000000003A
:0400000508000B796B
:00000001FF
