:020000040800F2
:100000000050002051130008691100087111000808
:100010007911000881110008891100080000000012
:100020000000000000000000000000009111000826
:100030009D11000800000000A9110008B51100087A
:1000400099130008991300089913000899130008E0
:1000500099130008991300089913000899130008D0
:1000600099130008991300089913000899130008C0
:1000700099130008991300089913000899130008B0
:1000800099130008991300089913000899130008A0
:100090009913000899130008991300089913000890
:1000A0009913000899130008991300089913000880
:1000B0009913000899130008991300089913000870
:1000C0009913000899130008991300089913000860
:1000D0009913000899130008991300089913000850
:1000E00099130008991300089913000800000000F4
:1000F0000000000000000000000000000000000000
:0C01000000000000000000005FF808F1A3
:1001100010B5054C237833B9044B13B10448AFF341
:1001200000800123237010BD180200200000000091
:100130009469000808B5034B1BB103490348AFF3AA
:10014000008008BD000000001C0200209469000827
:10015000034613F8012B002AFBD1181A0138704707
:1001600081F0004102E000BF83F0004330B54FEA68
:1001700041044FEA430594EA050F08BF90EA020FD5
:100180001FBF54EA000C55EA020C7FEA645C7FEA68
:10019000655C00F0E2804FEA5454D4EB5555B8BF8B
:1001A0006D420CDD2C4480EA020281EA030382EAFC
:1001B000000083EA010180EA020281EA0303362D8E
:1001C00088BF30BD11F0004F4FEA01314FF4801C61
:1001D0004CEA113102D0404261EB410113F0004F73
:1001E0004FEA03334CEA133302D0524263EB43032A
:1001F00094EA050F00F0A780A4F10104D5F1200EC8
:100200000DDB02FA0EFC22FA05F2801841F1000122
:1002100003FA0EF2801843FA05F359410EE0A5F1F6
:1002200020050EF1200E012A03FA0EFC28BF4CF027
:10023000020C43FA05F3C01851EBE37101F00045DD
:1002400007D54FF0000EDCF1000C7EEB00006EEBEA
:100250000101B1F5801F1BD3B1F5001F0CD3490874
:100260005FEA30004FEA3C0C04F101044FEA4452CB
:1002700012F5800F80F09A80BCF1004F08BF5FEA52
:10028000500C50F1000041EB045141EA050130BD32
:100290005FEA4C0C404141EB0101013C28BFB1F544
:1002A000801FE9D291F0000F04BF01460020B1FA8F
:1002B00081F308BF2033A3F10B03B3F120020CDA62
:1002C0000C3208DD02F1140CC2F10C0201FA0CF040
:1002D00021FA02F10CE002F11402D8BFC2F1200CA5
:1002E00001FA02F120FA0CFCDCBF41EA0C0190405B
:1002F000E41AA2BF01EB0451294330BD6FEA0404A4
:100300001F3C1CDA0C340EDC04F11404C4F120028E
:1003100020FA04F001FA02F340EA030021FA04F3A0
:1003200045EA030130BDC4F10C04C4F1200220FAF7
:1003300002F001FA04F340EA0300294630BD21FA35
:1003400004F0294630BD94F0000F83F4801306BFFB
:1003500081F480110134013D4EE77FEA645C18BFEF
:100360007FEA655C29D094EA050F08BF90EA020F86
:1003700005D054EA000C04BF1946104630BD91EA7E
:10038000030F1EBF0021002030BD5FEA545C05D181
:100390004000494128BF41F0004130BD14F58004C0
:1003A0003CBF01F5801130BD01F0004545F0FE4134
:1003B00041F470014FF0000030BD7FEA645C1ABF69
:1003C000194610467FEA655C1CBF0B46024650EAA0
:1003D000013406BF52EA033591EA030F41F40021CC
:1003E00030BD00BF90F0000F04BF0021704730B552
:1003F0004FF4806404F132044FF000054FF0000127
:1004000050E700BF90F0000F04BF0021704730B5E7
:100410004FF4806404F1320410F0004548BF4042BC
:100420004FF000013EE700BF42004FEAE2014FEA11
:1004300031014FEA02701FBF12F07F4393F07F4FEC
:1004400081F06051704732F07F4208BF704793F0EF
:100450007F4F04BF41F40021704730B54FF4607402
:1004600001F0004521F000411CE700BF50EA010205
:1004700008BF704730B54FF000050AE050EA0102AE
:1004800008BF704730B511F0004502D5404261EB1E
:1004900041014FF4806404F132045FEA915C3FF45F
:1004A000D8AE4FF003025FEADC0C18BF03325FEAFC
:1004B000DC0C18BF033202EBDC02C2F1200300FAAD
:1004C00003FC20FA02F001FA03FE40EA0E0021FAD2
:1004D00002F11444BDE600BF70B54FF0FF0C4CF4C0
:1004E000E06C1CEA11541DBF1CEA135594EA0C0F72
:1004F00095EA0C0F00F0DEF82C4481EA030621EAAD
:100500004C5123EA4C5350EA013518BF52EA0335E7
:1005100041F4801143F4801338D0A0FB02CE4FF099
:100520000005E1FB02E506F00042E0FB03E54FF0C9
:100530000006E1FB03569CF0000F18BF4EF0010EC1
:10054000A4F1FF04B6F5007F64F5407404D25FEABD
:100550004E0E6D4146EB060642EAC62141EA555170
:100560004FEAC52040EA5E504FEACE2EB4F1FD0CB2
:1005700088BFBCF5E06F1ED8BEF1004F08BF5FEA30
:10058000500E50F1000041EB045170BD06F00046E2
:1005900046EA010140EA020081EA0301B4EB5C048F
:1005A000C2BFD4EB0C0541EA045170BD41F4801187
:1005B0004FF0000E013C00F3AB8014F1360FDEBFAC
:1005C000002001F0004170BDC4F10004203C35DA88
:1005D0000C341BDC04F11404C4F1200500FA05F30B
:1005E00020FA04F001FA05F240EA020001F00042AC
:1005F00021F0004110EBD37021FA04F642EB060122
:100600005EEA430E08BF20EAD37070BDC4F10C044B
:10061000C4F1200500FA04F320FA05F001FA04F20F
:1006200040EA020001F0004110EBD37041F10001FB
:100630005EEA430E08BF20EAD37070BDC4F1200506
:1006400000FA05F24EEA020E20FA04F301FA05F26E
:1006500043EA020321FA04F001F0004121FA04F216
:1006600020EA020000EBD3705EEA430E08BF20EAE6
:10067000D37070BD94F0000F0FD101F00046400020
:1006800041EB010111F4801F08BF013CF7D041EAA2
:10069000060195F0000F18BF704703F000465200A6
:1006A00043EB030313F4801F08BF013DF7D043EA77
:1006B0000603704794EA0C0F0CEA135518BF95EA2D
:1006C0000C0F0CD050EA410618BF52EA4306D1D1B4
:1006D00081EA030101F000414FF0000070BD50EAD3
:1006E000410606BF1046194652EA430619D094EA5D
:1006F0000C0F02D150EA013613D195EA0C0F05D147
:1007000052EA03361CBF104619460AD181EA03019A
:1007100001F0004141F0FE4141F470014FF0000052
:1007200070BD41F0FE4141F4780170BD70B54FF0ED
:10073000FF0C4CF4E06C1CEA11541DBF1CEA13556D
:1007400094EA0C0F95EA0C0F00F0A7F8A4EB05044F
:1007500081EA030E52EA03354FEA013100F0888046
:100760004FEA03334FF0805545EA131343EA12630F
:100770004FEA022245EA111545EA10654FEA0026C4
:100780000EF000419D4208BF964244F1FD0404F57D
:10079000407402D25B084FEA3202B61A65EB0305D9
:1007A0005B084FEA32024FF480104FF4002CB6EB96
:1007B000020E75EB030E22BFB61A754640EA0C0016
:1007C0005B084FEA3202B6EB020E75EB030E22BF56
:1007D000B61A754640EA5C005B084FEA3202B6EB97
:1007E000020E75EB030E22BFB61A754640EA9C0056
:1007F0005B084FEA3202B6EB020E75EB030E22BF26
:10080000B61A754640EADC0055EA060E18D04FEAE3
:10081000051545EA16754FEA06164FEAC30343EA83
:1008200052734FEAC2025FEA1C1CC0D111F4801F50
:100830000BD141EA00014FF000004FF0004CB6E749
:1008400011F4801F04BF01430020B4F1FD0C88BFE8
:10085000BCF5E06F3FF6AFAEB5EB030C04BFB6EBF3
:10086000020C5FEA500C50F1000041EB045170BDE6
:100870000EF0004E4EEA113114EB5C04C2BFD4EB13
:100880000C0541EA045170BD41F480114FF0000E97
:10089000013C90E645EA060E8DE60CEA135594EA13
:1008A0000C0F08BF95EA0C0F3FF43BAF94EA0C0F16
:1008B0000AD150EA01347FF434AF95EA0C0F7FF48B
:1008C00025AF104619462CE795EA0C0F06D152EADF
:1008D00003353FF4FDAE1046194622E750EA4106C3
:1008E00018BF52EA43067FF4C5AE50EA41047FF4D4
:1008F0000DAF52EA43057FF4EBAE12E74FF0FF3C39
:1009000006E000BF4FF0010C02E000BF4FF0010C09
:100910004DF804CD4FEA410C7FEA6C5C4FEA430C82
:1009200018BF7FEA6C5C1BD001B050EA410C0CBFD1
:1009300052EA430C91EA030F02BF90EA020F002033
:10094000704710F1000F91EA030F58BF994208BF9A
:1009500090422CBFD8176FEAE37040F00100704757
:100960004FEA410C7FEA6C5C02D150EA013C07D1AE
:100970004FEA430C7FEA6C5CD6D152EA033CD3D0F9
:100980005DF8040B704700BF8446104662468C46F3
:100990001946634600E000BF01B5FFF7B7FF002826
:1009A00048BF10F1000F01BD4DF808EDFFF7F4FF4F
:1009B0000CBF012000205DF808FB00BF4DF808EDDA
:1009C000FFF7EAFF34BF012000205DF808FB00BFFD
:1009D0004DF808EDFFF7E0FF94BF012000205DF81F
:1009E00008FB00BF4DF808EDFFF7CEFF94BF0120D4
:1009F00000205DF808FB00BF4DF808EDFFF7C4FFCD
:100A000034BF012000205DF808FB00BF4FEA410C15
:100A10007FEA6C5C02D150EA013C0AD14FEA430CF8
:100A20007FEA6C5C02D152EA033C02D14FF0000035
:100A300070474FF0010070474FEA410212F5001273
:100A400015D211D56FF47873B3EB625212D94FEA15
:100A5000C12343F0004343EA505311F0004F23FAFF
:100A600002F018BF404270474FF00000704750EA54
:100A7000013005D111F0004008BF6FF00040704711
:100A80004FF00000704700BF80F0004002E000BF60
:100A900081F0004142001FBF5FEA410392EA030F69
:100AA0007FEA226C7FEA236C6AD04FEA1262D2EBB3
:100AB0001363C1BFD218414048404140B8BF5B42B8
:100AC000192B88BF704710F0004F40F4000020F051
:100AD0007F4018BF404211F0004F41F4000121F067
:100AE0007F4118BF494292EA030F3FD0A2F10102B1
:100AF00041FA03FC10EB0C00C3F1200301FA03F1EF
:100B000000F0004302D5494260EB4000B0F5000F11
:100B100013D3B0F1807F06D340084FEA310102F1D0
:100B20000102FE2A51D2B1F1004F40EBC25008BF82
:100B300020F0010040EA03007047490040EB00004C
:100B4000013A28BFB0F5000FEDD2B0FA80FCACF14D
:100B5000080CB2EB0C0200FA0CF0AABF00EBC2507A
:100B600052421843BCBFD0401843704792F0000F68
:100B700081F4000106BF80F400000132013BB5E7BB
:100B80004FEA41037FEA226C18BF7FEA236C21D031
:100B900092EA030F04D092F0000F08BF0846704796
:100BA00090EA010F1CBF0020704712F07F4F04D164
:100BB000400028BF40F00040704712F100723CBF77
:100BC00000F50000704700F0004343F0FE4040F4A1
:100BD000000070477FEA226216BF08467FEA23635F
:100BE0000146420206BF5FEA412390EA010F40F44A
:100BF000800070474FF0000304E000BF10F0004396
:100C000048BF40425FEA000C08BF704743F096437C
:100C100001464FF000001CE050EA010208BF704797
:100C20004FF000030AE000BF50EA010208BF70471E
:100C300011F0004302D5404261EB41015FEA010C33
:100C400002BF84460146002043F0B64308BFA3F12B
:100C50008053A3F50003BCFA8CF2083AA3EBC2530D
:100C600010DB01FA02FC634400FA02FCC2F120022C
:100C7000BCF1004F20FA02F243EB020008BF20F063
:100C80000100704702F1200201FA02FCC2F12002C9
:100C900050EA4C0021FA02F243EB020008BF20EABE
:100CA000DC70704780B586B002AF03463960FB71D7
:100CB0001346BB71FB799BB25B0099B2BB799BB2C7
:100CC000642200923A68074801F0EAFB0346FB738E
:100CD000FB7B002B0CBF01230023DBB2184610372F
:100CE000BD4680BD3402002080B586B002AF034609
:100CF0003960FB711346BB71FB799BB25B0099B203
:100D0000BB799BB2642200923A68074801F0CAFAA4
:100D10000346FB73FB7B002B0CBF01230023DBB2DC
:100D200018461037BD4680BD340200202DE9B0437F
:100D300086B004AF00F06CFE00F088F800F024F9F3
:100D400000F0CAF800F0F6F8374800F057FB374BD0
:100D50009B69364A43F004039361344B9B6903F06B
:100D600004033B603B6810220221314800F028FD5B
:100D70002D4800F043FB0346002B08D107230093C6
:100D80002C4B002200212A4800F0D5FD07E0082363
:100D90000093294B00220021254800F0CCFD40F6AD
:100DA000B83000F097FE224800F0DEFD1E4800F04B
:100DB0006EFB1D4800F0D2FB0346012B28D01A4BD6
:100DC000DB681846FFF730FB80468946164B1B69E7
:100DD0001846FFF729FB04460D46134B5B6918467E
:100DE000FFF722FB02460B46CDE90223CDE9004581
:100DF00042464B461149124803F096FC0346FB71EC
:100E0000FB799AB264230E490E4802F09BFD07E07D
:100E1000052300930C4B00220021054800F08BFDB8
:100E2000642000F057FEC4E70000002000100240DC
:100E300024000020B0690008B8690008C4690008EF
:100E4000D002002088020020E469000880B590B03C
:100E500000AF07F1180328220021184603F0C7FC51
:100E60003B1D00221A605A609A60DA601A61012301
:100E7000BB614FF48033FB6100233B620123BB6203
:100E800002237B634FF48033BB634FF4E013FB63B7
:100E900007F11803184602F0F5F80346002B01D0BD
:100EA00000F0A0F80F237B600223BB600023FB60EF
:100EB0004FF480633B6100237B613B1D0221184698
:100EC00002F062FB0346002B01D000F08BF800BF5C
:100ED0004037BD4680BD000080B500AF124B134ABD
:100EE0001A60114B124A5A600F4B00229A600E4B47
:100EF0000022DA600C4B4FF480421A610A4B002248
:100F00005A61094B00229A61074B0022DA61064BB5
:100F100000221A62044801F081F80346002B01D038
:100F200000F060F800BF80BD340200200054004093
:100F3000A086010080B500AF114B124A1A60104B19
:100F40004FF4E1325A600E4B00229A600C4B0022A3
:100F5000DA600B4B00221A61094B0C225A61084BD4
:100F600000229A61064B0022DA61054802F09AFCE1
:100F70000346002B01D000F035F800BF80BD00BF54
:100F8000880200200038014080B485B000AF144BC7
:100F90009B69134A43F020039361114B9B6903F053
:100FA0002003FB60FB680E4B9B690D4A43F0040372
:100FB00093610B4B9B6903F00403BB60BB68084B58
:100FC0009B69074A43F008039361054B9B6903F053
:100FD00008037B607B6800BF1437BD4680BC704748
:100FE0000010024080B400AF72B600BF00BFFDE742
:100FF00080B485B000AF154B9B69144A43F00103E0
:101000009361124B9B6903F00103BB60BB680F4BFC
:10101000DB690E4A43F08053D3610C4BDB6903F06C
:1010200080537B607B680A4B5B68FB60FB6823F046
:10103000E063FB60FB6843F00073FB60044AFB68FD
:10104000536000BF1437BD4680BC7047001002409B
:101050000000014080B588B000AF786007F1100350
:1010600000221A605A609A60DA607B681B68154A31
:10107000934223D1144B9B69134A43F008039361B5
:10108000114B9B6903F00803FB60FB68C0233B61C5
:1010900012237B610323FB6107F1100319460B4800
:1010A00000F020FE084BDB69074A43F40013D361CC
:1010B000054BDB6903F40013BB60BB6800BF20373E
:1010C000BD4680BD0054004000100240000C0140AD
:1010D00080B588B000AF786007F1100300221A6075
:1010E0005A609A60DA607B681B681C4A934231D16F
:1010F0001B4B9B691A4A43F480439361184B9B69CD
:1011000003F48043FB60FB68154B9B69144A43F072
:1011100004039361124B9B6903F00403BB60BB683B
:101120004FF400733B6102237B610323FB6107F1F2
:10113000100319460B4800F0D5FD4FF480633B6166
:1011400000237B610023BB6107F1100319460548AA
:1011500000F0C8FD00BF2037BD4680BD003801400B
:10116000001002400008014080B400AF00BFFDE75E
:1011700080B400AF00BFFDE780B400AF00BFFDE763
:1011800080B400AF00BFFDE780B400AF00BFFDE753
:1011900080B400AF00BFBD4680BC704780B400AFD4
:1011A00000BFBD4680BC704780B400AF00BFBD46E5
:1011B00080BC704780B500AF00F070FC00BF80BD00
:1011C00080B400AF01231846BD4680BC704780B58F
:1011D00082B000AF7860396003F05CFB03461622F2
:1011E0001A604FF0FF3318460837BD4680BD80B502
:1011F00082B000AF78604FF0FF317868FFF7E7FF0B
:1012000000BFFDE780B586B000AFF860B9607A60D6
:1012100000237B610AE0AFF300800146BB685A1CE3
:10122000BA60CAB21A707B6901337B617A697B68E4
:101230009A42F0DB7B6818461837BD4680BD80B502
:1012400086B000AFF860B9607A6000237B6109E086
:10125000BB685A1CBA601B781846AFF300807B69E4
:1012600001337B617A697B689A42F1DB7B681846BF
:101270001837BD4680BD80B483B000AF78604FF0B2
:10128000FF3318460C37BD4680BC704780B483B02E
:1012900000AF786039603B684FF400525A60002319
:1012A00018460C37BD4680BC704780B483B000AF91
:1012B0007860012318460C37BD4680BC704780B467
:1012C00085B000AFF860B9607A6000231846143723
:1012D000BD4680BC7047000080B586B000AF786026
:1012E000144A154BD31A7B617B693B61134B1B6816
:1012F000002B02D1114B124A1A60104B1A687B68FE
:1013000013443A699A4207D203F0C4FA03460C2206
:101310001A604FF0FF3309E0084B1B68FB60074B76
:101320001A687B681344054A1360FB68184618372F
:10133000BD4680BD0050002000040000E4020020F3
:101340003804002080B400AF00BFBD4680BC7047A9
:10135000FFF7F8FF0B480C490C4A002302E0D45871
:10136000C4500433C4188C42F9D3094A094C0023F1
:1013700001E013600432A242FBD303F091FAFFF7BD
:10138000D5FC70470000002018020020986D00086E
:101390001802002038040020FEE7000080B400AFEF
:1013A000144BDB68134A23F08073D360114BDB6866
:1013B000104A43F08073D3600F4B1B680E4A23F032
:1013C000010313600C4B1B680B4A43F001031360CD
:1013D000094B00225A6000BF00BF00BF064B5B688C
:1013E000002B01D0002300E001231846BD4680BC3D
:1013F000704700BFF0ED00E0001000E080B582B063
:1014000000AF78607B682D221A707B6893F82330D8
:10141000C3F34003DBB25B015AB27B6893F823301D
:10142000C3F38003DBB21B015BB213435AB27B6888
:1014300093F82330C3F3C003DBB2DB005BB213438A
:101440005AB27B6893F82330C3F30013DBB29B00DE
:101450005BB213435AB27B6893F82330C3F3411352
:10146000DBB25BB213435BB2DAB27B685A707B6863
:10147000DB6979680222532098470346012B14BF89
:1014800001230023DBB218460837BD4680BD80B576
:1014900084B000AF78607B681E221A700023FB7353
:1014A0000BE0FA7BFB7B013379680A4492F8201049
:1014B0007A68D154FB7B0133FB73FB7B022BF0D9A1
:1014C0007B68DB6979680422532098470346012B27
:1014D00001D001233EE07B682C221A707B6893F8D0
:1014E0002330C3F30003DBB21B015AB27B68DB7904
:1014F0005BB213435BB2DAB27B685A707B68DB691C
:1015000079680222532098470346012B01D001231A
:1015100020E07B6831221A707B681B7AC3F30003DA
:10152000DBB2DB005AB27B689B79C3F30103DBB209
:101530005BB213435BB2DAB27B685A707B68DB69DB
:1015400079680222532098470346012B14BF0123D8
:101550000023DBB218461037BD4680BD80B584B08D
:1015600000AF78607B6832221A707B68DB6979682B
:101570000122532098470346012B14BF0123002367
:10158000DBB2FB73FB7B002B01D0FB7B2AE07B688B
:101590009B6979680622532098477B685B781B0219
:1015A0007A68127813431846FFF728FB02467B68D7
:1015B000DA607B68DB781B027A68927813431846FE
:1015C000FFF71CFB02467B681A617B685B791B0294
:1015D0007A68127913431846FFF710FB02467B68BE
:1015E0005A61FB7B18461037BD4680BD80B584B07C
:1015F00000AF78600D4B5B68FB6002F003F90346B7
:101600000B4AA2FB03239B0C7A6802FB03F37B606B
:1016100000BF064B5A68FB68D21A7B689A42F8D31F
:1016200000BF00BF1037BD4680BD00BF001000E006
:1016300083DE1B4380B582B000AF0346FB80FB888E
:101640001846FFF7D3FF00BF0837BD4680BD80B402
:1016500083B000AF78600B46FB707B685B68DA682C
:101660007B681B7A19460F238B40DB4319467B6846
:101670005B680A40DA607B685B68DA68FB787968E7
:10168000097A8B4019467B685B680A43DA6000BFC1
:101690000C37BD4680BC704780B582B000AF786023
:1016A0000B46FB707B6858697B681B8BFA78194680
:1016B00000F09CFC00BF0837BD4680BD80B582B0FD
:1016C00000AF78600B46FB707B68D8687B681B8A2C
:1016D000FA78194600F08AFC00BF0837BD4680BD85
:1016E00080B586B000AF786007F1080300221A6069
:1016F0005A609A60DA607B681B8BBB600123FB60D9
:1017000002237B617B685B6907F10802114618467A
:1017100000F0E8FA7B681B8ABB607B68DB6807F136
:1017200008021146184600F0DDFA7B681B7A1A465B
:101730000F239340BB607B685B6807F1080211468A
:10174000184600F0CFFA00BF1837BD4680BD80B5FF
:1017500082B000AF78600B46FB701346BB70FB781D
:1017600019467868FFF798FFBB781B09DBB219466A
:101770007868FFF76CFF01217868FFF79FFF0A2068
:10178000FFF758FF00217868FFF798FF6420FFF704
:1017900051FFBB7819467868FFF759FF0121786837
:1017A000FFF78CFF0A20FFF745FF00217868FFF75D
:1017B00085FF6420FFF73EFF00BF0837BD4680BDB0
:1017C00080B584B000AF78600B46FB701346BB70E9
:1017D000FFF7E4FD7868FFF783FF7B6800229A76C5
:1017E0007B684022DA767B68BA781A77BB78403318
:1017F000DAB27B685A7700217868FFF74DFF002145
:101800007868FFF75BFF4CF25030FFF713FF0023BF
:10181000FB7318E003217868FFF719FF012178684E
:10182000FFF74CFF0A20FFF705FF00217868FFF75C
:1018300045FF6420FFF7FEFE41F29410FFF7FAFE29
:10184000FB7B0133FB73FB7B012BE3D9032178681E
:10185000FFF7FDFE01217868FFF730FF0A20FFF750
:10186000E9FE00217868FFF729FF6420FFF7E2FE18
:101870009620FFF7DFFE02217868FFF7E8FE0121DE
:101880007868FFF71BFF0A20FFF7D4FE0021786875
:10189000FFF714FF6420FFF7CDFE282200217868AF
:1018A000FFF755FF002300220121786800F06DF852
:1018B000786800F059F800BF1037BD4680BD80B58C
:1018C00082B000AF78600B46FB701346BB70FB78AC
:1018D0007A6813449A7EBB781344DBB25BB263F040
:1018E0007F035BB2DBB21A4600217868FFF72FFF57
:1018F00000BF0837BD4680BD80B586B000AFF86038
:10190000B9601346FB710023FB750BE0BB685A1CE2
:10191000BA601B781A460121F868FFF718FFFB7DB3
:101920000133FB75FA7DFB799A42EFD300BF00BF0C
:101930001837BD4680BD80B584B000AFF8607B60CD
:101940000B46FB721346BB72BA7AFB7A1946F868EB
:10195000FFF7B5FF3B7E1A467968F868FFF7CCFFC2
:1019600000BF1037BD4680BD80B582B000AF786043
:10197000012200217868FFF7EAFE4FF4FA60FFF7D2
:1019800059FE00BF0837BD4680BD80B582B000AFAC
:101990007860084611461A460346FB700B46BB703A
:1019A00013467B707B6800229A77FB78002B06D069
:1019B0007B689B7F43F00403DAB27B689A77BB783D
:1019C000002B06D07B689B7F43F00203DAB27B6872
:1019D0009A777B78002B06D07B689B7F43F00103CE
:1019E000DAB27B689A777B689B7F43F00403DAB2B4
:1019F0007B689A777B689B7F43F00803DBB21A46CB
:101A000000217868FFF7A3FE00BF0837BD4680BD00
:101A100080B500AF084B1B68074A43F01003136002
:101A2000032000F02BF90F2000F008F8FFF7E0FA90
:101A30000023184680BD00BF0020024080B582B060
:101A400000AF7860124B1A68124B1B7819464FF49E
:101A50007A73B3FBF1F3B2FBF3F3184600F035F9F8
:101A60000346002B01D001230EE07B680F2B0AD820
:101A7000002279684FF0FF3000F00BF9064A7B68CE
:101A80001360002300E0012318460837BD4680BDDF
:101A9000440000204C0000204800002080B400AF2B
:101AA000054B1B781A46054B1B681344034A136009
:101AB00000BFBD4680BC70474C000020E8020020FB
:101AC00080B400AF024B1B681846BD4680BC70470F
:101AD000E802002080B584B000AF7860FFF7F0FF27
:101AE000B8607B68FB60FB68B3F1FF3F05D00A4B31
:101AF0001B781A46FB681344FB6000BFFFF7E0FF4A
:101B00000246BB68D31AFA689A42F7D800BF00BFF2
:101B10001037BD4680BD00BF4C00002080B485B0AA
:101B200000AF78607B6803F00703FB600C4BDB6859
:101B3000BB60BA684FF6FF031340BB60FB681A0234
:101B4000BB68134343F0BF6343F40033BB60044AF4
:101B5000BB68D36000BF1437BD4680BC704700BF70
:101B600000ED00E080B400AF044BDB681B0A03F01B
:101B700007031846BD4680BC704700BF00ED00E07B
:101B800080B483B000AF03463960FB7197F907302A
:101B9000002B0ADB3B68DAB20C4997F907301201D7
:101BA000D2B20B4483F800230AE03B68DAB208495A
:101BB000FB7903F00F03043B1201D2B20B441A76F7
:101BC00000BF0C37BD4680BC704700BF00E100E09D
:101BD00000ED00E080B489B000AFF860B9607A60D1
:101BE000FB6803F00703FB61FB69C3F10703042BE8
:101BF00028BF0423BB61FB690433062B02D9FB69B0
:101C0000033B00E000237B614FF0FF32BB6902FA27
:101C100003F3DA43BB681A407B699A404FF0FF3107
:101C20007B6901FA03F3D9437B680B4013431846E1
:101C30002437BD4680BC704780B582B000AF786065
:101C40007B68013BB3F1807F01D301230FE00A4A97
:101C50007B68013B53600F214FF0FF30FFF790FF8F
:101C6000054B00229A60044B07221A600023184695
:101C70000837BD4680BD00BF10E000E080B582B0EF
:101C800000AF78607868FFF749FF00BF0837BD46AE
:101C900080BD80B586B000AF0346B9607A60FB7343
:101CA00000237B61FFF75EFF78617A68B968786925
:101CB000FFF790FF024697F90F3011461846FFF7DD
:101CC0005FFF00BF1837BD4680BD80B582B000AF52
:101CD00078607868FFF7B0FF034618460837BD46BE
:101CE00080BD000080B48BB000AF78603960002305
:101CF0007B6200233B6269E101227B6A02FA03F303
:101D0000FB613B681B68FA691340BB61BA69FB69F8
:101D10009A4240F058813B685B689A4A93425ED091
:101D2000984A934275D8984A934258D0964A93421B
:101D30006FD8964A934252D0944A934269D8944AB3
:101D400093424CD0924A934263D8924A934246D0EF
:101D5000904A93425DD8122B2AD8122B59D801A24F
:101D600052F823F0DF1D0008B91D0008CB1D000844
:101D70000D1E0008131E0008131E0008131E000885
:101D8000131E0008131E0008131E0008131E00086F
:101D9000131E0008131E0008131E0008131E00085F
:101DA000131E0008131E0008C11D0008D51D0008E1
:101DB000794A934213D02CE03B68DB683B6229E010
:101DC0003B68DB6804333B6224E03B68DB68083334
:101DD0003B621FE03B68DB680C333B621AE03B6808
:101DE0009B68002B02D104233B6213E03B689B6895
:101DF000012B05D108233B627B68FA691A6109E06F
:101E000008233B627B68FA695A6103E000233B6266
:101E100000E000BFBB69FF2B01D87B6801E07B6855
:101E200004337B61BB69FF2B02D87B6A9B0002E015
:101E30007B6A083B9B003B617B691A680F213B6909
:101E400001FA03F3DB431A40396A3B6901FA03F3F1
:101E50001A437B691A603B685B6803F08053002B70
:101E600000F0B1804D4B9B694C4A43F001039361F4
:101E70004A4B9B6903F00103BB60BB68484A7B6A1D
:101E80009B08023352F82330FB607B6A03F00303A4
:101E90009B000F2202FA03F3DB43FA681340FB6056
:101EA0007B68404A934213D07B683F4A93420DD0EF
:101EB0007B683E4A934207D07B683D4A934201D1FA
:101EC000032306E0042304E0022302E0012300E0F0
:101ED00000237A6A02F0030292009340FA681343E7
:101EE000FB602F497B6A9B080233FA6841F8232084
:101EF0003B685B6803F48013002B06D02D4B9A6877
:101F00002C49BB6913438B6006E02A4B9A68BB6976
:101F1000DB43284913408B603B685B6803F4001384
:101F2000002B06D0234BDA682249BB691343CB60F0
:101F300006E0204BDA68BB69DB431E491340CB60E7
:101F40003B685B6803F40033002B06D0194B5A68DA
:101F50001849BB6913434B6006E0164B5A68BB69CE
:101F6000DB43144913404B603B685B6803F48033E8
:101F7000002B21D00F4B1A680E49BB6913430B602D
:101F800021E000BF000032100000311000002210DC
:101F9000000021100000121000001110001002407B
:101FA0000000014000080140000C01400010014009
:101FB00000140140000401400B4B1A68BB69DB436D
:101FC000094913400B607B6A01337B623B681A68E6
:101FD0007B6A22FA03F3002B7FF48EAE00BF00BFB2
:101FE0002C37BD4680BC70470004014080B483B0EC
:101FF00000AF78600B467B8013467B707B78002BAC
:1020000003D07A887B681A6103E07B881A047B68B6
:102010001A6100BF0C37BD4680BC704780B584B0E4
:1020200000AF78607B68002B01D101232BE17B6836
:1020300093F83D30DBB2002B06D17B68002283F899
:102040003C207868FFF706F87B68242283F83D205F
:102050007B681B681A687B681B6822F001021A60A3
:102060007B681B681A687B681B6842F400421A6030
:102070007B681B681A687B681B6822F400421A6040
:1020800001F0CAFBF8607B685B68814A934207D81D
:10209000FB68804A934294BF01230023DBB206E031
:1020A000FB687D4A934294BF01230023DBB2002BDF
:1020B00001D00123E7E0FB68784AA2FB03239B0CD5
:1020C000BB607B681B685B6823F03F017B681B6813
:1020D000BA680A435A607B681B681B6A23F03F0199
:1020E0007B685B686A4A934202D8BB68013309E0A7
:1020F000BB684FF4967202FB03F3694AA2FB032309
:102100009B0901337A6812680B4313627B681B6872
:10211000DB6923F44F4222F0FF027B685B685C4975
:102120008B4219D8FB68591E7B685B685B00B1FB6A
:10213000F3F3591C40F6FC730B40002B0AD0FB68EC
:10214000591E7B685B685B00B1FBF3F30133C3F39B
:102150000B0351E004234FE07B689B68002B11D1F7
:10216000FB68581E7B6859680B465B000B44B0FB4C
:10217000F3F30133C3F30B03002B0CBF0123002344
:10218000DBB212E0FB68581E7B6859680B469B0067
:102190000B4499000B44B0FBF3F30133C3F30B037F
:1021A000002B0CBF01230023DBB2002B01D0012345
:1021B00022E07B689B68002B0ED1FB68581E7B6871
:1021C00059680B465B000B44B0FBF3F30133C3F3D8
:1021D0000B0343F400430FE0FB68581E7B6859680B
:1021E0000B469B000B4499000B44B0FBF3F3013307
:1021F000C3F30B0343F44043796809681343CB618D
:102200007B681B681B6823F0C0017B68DA697B6808
:102210001B6A1A437B681B680A431A607B681B6849
:102220009B6823F4034323F0FF037A6811697A68FB
:10223000D26811437A6812680B4393607B681B680D
:10224000DB6823F0FF017B685A697B689B691A434E
:102250007B681B680A43DA607B681B681A687B68C6
:102260001B6842F001021A607B6800221A647B68D6
:10227000202283F83D207B6800221A637B680022BD
:1022800083F83E20002318461037BD4680BD00BFAE
:10229000A08601007F841E00FF083D0083DE1B43F3
:1022A000D34D621080B588B002AFF8607A601A46EC
:1022B0000B467B8113463B81FFF702FC7861FB688C
:1022C00093F83D30DBB2202B40F0E0807B69009337
:1022D000192301227049F86800F09EFC0346002B88
:1022E00001D00223D3E0FB6893F83C30012B01D1ED
:1022F0000223CCE0FB68012283F83C20FB681B68CA
:102300001B6803F00103012B07D0FB681B681A68E8
:10231000FB681B6842F001021A60FB681B681A68C0
:10232000FB681B6822F400621A60FB68212283F8B4
:102330003D20FB68102283F83E20FB6800221A64CF
:10234000FB687A685A62FB683A895A85FB685B8D3C
:102350009AB2FB681A85FB68504ADA6279897B6910
:102360003A6AF86800F008FB0346002B01D001230D
:102370008DE000233B61FB681B685B693B61FB6888
:102380001B689B693B613B6966E07A69396AF8685A
:1023900000F05CFD0346002B0DD0FB681B6C042B8A
:1023A00007D1FB681B681A68FB681B6842F400725F
:1023B0001A6001236BE0FB685B6A1A78FB681B6894
:1023C0001A61FB685B6A5A1CFB685A62FB685B8D8A
:1023D0009BB2013B9AB2FB685A85FB681B8D013B9F
:1023E0009AB2FB681A85FB681B685B6903F00403FB
:1023F000042B1BD1FB681B8D002B17D0FB685B6A7D
:102400001A78FB681B681A61FB685B6A5A1CFB68D8
:102410005A62FB685B8D9BB2013B9AB2FB685A859E
:10242000FB681B8D013B9AB2FB681A857A69396A91
:10243000F86800F053FD0346002B0DD0FB681B6CC1
:10244000042B07D1FB681B681A68FB681B6842F401
:1024500000721A6001231AE0FB681B8D002B94D1D7
:10246000FB681B681A68FB681B6842F400721A60FC
:10247000FB68202283F83D20FB68002283F83E2081
:10248000FB68002283F83C20002300E0022318466A
:102490001837BD4680BD00BF020010000000FFFFDE
:1024A00080B58CB002AFF8607A601A460B467B812B
:1024B00013463B8100233B62FFF702FB7862FB6817
:1024C00093F83D30DBB2202B40F04B827B6A0093C7
:1024D000192301227F49F86800F09EFB0346002B78
:1024E00001D002233EE2FB6893F83C30012B01D17E
:1024F000022337E2FB68012283F83C20FB681B685B
:102500001B6803F00103012B07D0FB681B681A68E6
:10251000FB681B6842F001021A60FB681B681A68BE
:10252000FB681B6822F400621A60FB68222283F8B1
:102530003D20FB68102283F83E20FB6800221A64CD
:10254000FB687A685A62FB683A895A85FB685B8D3A
:102550009AB2FB681A85FB685F4ADA6279897B6AFE
:102560003A6BF86800F08AFA0346002B01D0012389
:10257000F8E1FB681B8D002B13D10023FB61FB6886
:102580001B685B69FB61FB681B689B69FB61FB69FE
:10259000FB681B681A68FB681B6842F400721A60CB
:1025A000CCE1FB681B8D012B1ED1FB681B681A68F0
:1025B000FB681B6822F480621A6072B600BF0023B9
:1025C000BB61FB681B685B69BB61FB681B689B693F
:1025D000BB61BB69FB681B681A68FB681B6842F437
:1025E00000721A6062B635E0FB681B8D022B1ED1AB
:1025F000FB681B681A68FB681B6842F400621A607B
:1026000072B600BF00237B61FB681B685B697B615E
:10261000FB681B689B697B617B69FB681B681A68A8
:10262000FB681B6822F480621A6062B612E0FB68E5
:102630001B681A68FB681B6842F480621A600023FA
:102640003B61FB681B685B693B61FB681B689B69BE
:102650003B613B6972E1FB681B8D032B00F21F811C
:10266000FB681B8D012B23D17A6A396BF86800F067
:102670007DFC0346002B01D0012373E1FB681B683E
:102680001A69FB685B6AD2B21A70FB685B6A5A1CF3
:10269000FB685A62FB681B8D013B9AB2FB681A8586
:1026A000FB685B8D9BB2013B9AB2FB685A8545E1A2
:1026B000FB681B8D022B52D17B6A00933B6B00227F
:1026C0000649F86800F0A8FA0346002B08D0012359
:1026D00048E100BF020010000000FFFF04000100FD
:1026E00072B600BFFB681B681A68FB681B6842F47F
:1026F00000721A60FB681B681A69FB685B6AD2B2D9
:102700001A70FB685B6A5A1CFB685A62FB681B8D77
:10271000013B9AB2FB681A85FB685B8D9BB2013B5B
:102720009AB2FB685A8562B600BFFB681B681A69DB
:10273000FB685B6AD2B21A70FB685B6A5A1CFB6862
:102740005A62FB681B8D013B9AB2FB681A85FB68D5
:102750005B8D9BB2013B9AB2FB685A85EEE07B6AC7
:1027600000933B6B00228149F86800F055FA03465C
:10277000002B01D00123F5E0FB681B681A68FB6899
:102780001B6822F480621A6072B600BFFB681B6887
:102790001A69FB685B6AD2B21A70FB685B6A5A1CE2
:1027A000FB685A62FB681B8D013B9AB2FB681A8575
:1027B000FB685B8D9BB2013B9AB2FB685A856C4B00
:1027C0001B68DB086B4AA2FB03231A0A13469B0013
:1027D0001344DA00D31A3B623B6A013B3B623B6A1B
:1027E000002B18D1FB6800221A63FB68202283F8B3
:1027F0003D20FB68002283F83E20FB681B6C43F001
:102800002002FB681A6462B600BFFB68002283F8EE
:102810003C200123A6E0FB681B685B6903F004030E
:10282000042BD9D1FB681B681A68FB681B6842F44B
:1028300000721A60FB681B681A69FB685B6AD2B297
:102840001A70FB685B6A5A1CFB685A62FB681B8D36
:10285000013B9AB2FB681A85FB685B8D9BB2013B1A
:102860009AB2FB685A8562B600BFFB681B681A699A
:10287000FB685B6AD2B21A70FB685B6A5A1CFB6821
:102880005A62FB681B8D013B9AB2FB681A85FB6894
:102890005B8D9BB2013B9AB2FB685A854EE07A6A27
:1028A000396BF86800F062FB0346002B01D001236E
:1028B00058E0FB681B681A69FB685B6AD2B21A7041
:1028C000FB685B6A5A1CFB685A62FB681B8D013B04
:1028D0009AB2FB681A85FB685B8D9BB2013B9AB28A
:1028E000FB685A85FB681B685B6903F00403042BD3
:1028F00024D1FB681B8D032B07D1FB681B681A686A
:10290000FB681B6822F480621A60FB681B681A6906
:10291000FB685B6AD2B21A70FB685B6A5A1CFB6880
:102920005A62FB681B8D013B9AB2FB681A85FB68F3
:102930005B8D9BB2013B9AB2FB685A85FB681B8D8D
:10294000002B7FF488AEFB68202283F83D20FB68D3
:10295000002283F83E20FB68002283F83C200023FD
:1029600000E0022318462837BD4680BD0400010060
:102970004400002089B5F81480B588B002AFF86033
:102980007A603B600B467B81FB68DB6A7B617B691D
:10299000082B06D07B69012B03D07B6913F5803FA0
:1029A00008D1FB681B681A68FB681B6842F48072D8
:1029B0001A600BE0FB681B6B122B07D1FB681B68CE
:1029C0001A68FB681B6842F480721A603B680093C7
:1029D0007B6800224FF00111F86800F01DF90346F2
:1029E000002B0DD0FB681B681B6803F48073B3F5E4
:1029F000807F03D1FB684FF400721A64032335E033
:102A0000FB681B69B3F5804F08D17B89DBB21A469E
:102A1000FB681B6802F0FE021A611BE07B89DB1178
:102A2000DBB203F00603DBB263F00F03DAB2FB683C
:102A30001B681A613B687A680E49F86800F066F90D
:102A40000346002B01D0012310E07B89DAB2FB683A
:102A50001B681A613B687A680749F86800F056F904
:102A60000346002B01D0012300E00023184618374D
:102A7000BD4680BD080001000200010080B588B09D
:102A800002AFF8607A603B600B467B81FB68DB6AD3
:102A90007B61FB681B681A68FB681B6842F48062F4
:102AA0001A607B69082B06D07B69012B03D07B69F8
:102AB00013F5803F08D1FB681B681A68FB681B6828
:102AC00042F480721A600BE0FB681B6B112B07D17C
:102AD000FB681B681A68FB681B6842F480721A6006
:102AE0003B6800937B6800224FF00111F86800F00A
:102AF00093F80346002B0DD0FB681B681B6803F49A
:102B00008073B3F5807F03D1FB684FF400721A64C1
:102B1000032379E0FB681B69B3F5804F08D17B89FB
:102B2000DBB243F00103DAB2FB681B681A615FE0B5
:102B30007B89DB11DBB203F00603DBB263F00F032A
:102B4000DAB2FB681B681A613B687A683049F8683A
:102B500000F0DCF80346002B01D0012354E07B8910
:102B6000DAB2FB681B681A613B687A682949F86821
:102B700000F0CCF80346002B01D0012344E00023F1
:102B80003B61FB681B685B693B61FB681B689B6979
:102B90003B613B69FB681B681A68FB681B6842F471
:102BA00080721A603B6800937B6800224FF001112D
:102BB000F86800F031F80346002B0DD0FB681B6865
:102BC0001B6803F48073B3F5807F03D1FB684FF477
:102BD00000721A64032317E07B89DB11DBB203F078
:102BE0000603DBB263F00E03DAB2FB681B681A61FE
:102BF0003B687A680749F86800F088F80346002BBC
:102C000001D0012300E0002318461837BD4680BDDF
:102C1000080001000200010080B584B000AFF86038
:102C2000B9603B601346FB7148E03B68B3F1FF3F7E
:102C300044D0FEF745FF0246BB69D31A3A689A4270
:102C400002D33B68002B39D1BB681B0CDBB2012BD4
:102C50000DD1FB681B685B69DA43BB6813409BB20C
:102C6000002B0CBF01230023DBB21A460CE0FB68EB
:102C70001B689B69DA43BB6813409BB2002B0CBFF7
:102C800001230023DBB21A46FB799A4216D1FB6876
:102C900000221A63FB68202283F83D20FB68002293
:102CA00083F83E20FB681B6C43F02002FB681A642B
:102CB000FB68002283F83C20012323E0BB681B0C47
:102CC000DBB2012B0DD1FB681B685B69DA43BB6883
:102CD00013409BB2002B0CBF01230023DBB21A462A
:102CE0000CE0FB681B689B69DA43BB6813409BB22E
:102CF000002B0CBF01230023DBB21A46FB799A425A
:102D000093D0002318461037BD4680BD80B584B0EF
:102D100000AFF860B9607A603B6071E0FB681B68E7
:102D20005B6903F48063B3F5806F23D1FB681B6894
:102D30001A68FB681B6842F400721A60FB681B6823
:102D40006FF480625A61FB6800221A63FB682022DC
:102D500083F83D20FB68002283F83E20FB681B6C53
:102D600043F00402FB681A64FB68002283F83C20ED
:102D7000012367E07B68B3F1FF3F41D0FEF7A0FE7F
:102D800002463B68D31A7A689A4202D37B68002BCA
:102D900036D1BB681B0CDBB2012B0CD1FB681B6866
:102DA0005B69DA43BB6813409BB2002B14BF01235D
:102DB0000023DBB20BE0FB681B689B69DA43BB684E
:102DC00013409BB2002B14BF01230023DBB2002B66
:102DD00016D0FB6800221A63FB68202283F83D208E
:102DE000FB68002283F83E20FB681B6C43F0200246
:102DF000FB681A64FB68002283F83C20012321E071
:102E0000BB681B0CDBB2012B0CD1FB681B685B6938
:102E1000DA43BB6813409BB2002B14BF012300238D
:102E2000DBB20BE0FB681B689B69DA43BB681340AD
:102E30009BB2002B14BF01230023DBB2002B7FF4D5
:102E40006DAF002318461037BD4680BD80B584B0F5
:102E500000AFF860B9607A6034E0F86800F0E3F839
:102E60000346002B01D0012334E0BB68B3F1FF3FE0
:102E700028D0FEF725FE02467B68D31ABA689A422C
:102E800002D3BB68002B1DD1FB681B685B6903F094
:102E90008003802B16D0FB6800221A63FB68202277
:102EA00083F83D20FB68002283F83E20FB681B6C02
:102EB00043F02002FB681A64FB68002283F83C2080
:102EC000012307E0FB681B685B6903F08003802B2C
:102ED000C3D1002318461037BD4680BD80B584B0ED
:102EE00000AFF860B9607A6034E0F86800F09BF8F1
:102EF0000346002B01D0012334E0BB68B3F1FF3F50
:102F000028D0FEF7DDFD02467B68D31ABA689A42E4
:102F100002D3BB68002B1DD1FB681B685B6903F003
:102F20000403042B16D0FB6800221A63FB682022DE
:102F300083F83D20FB68002283F83E20FB681B6C71
:102F400043F02002FB681A64FB68002283F83C20EF
:102F5000012307E0FB681B685B6903F00403042B93
:102F6000C3D1002318461037BD4680BD80B584B05C
:102F700000AFF860B9607A6049E0FB681B685B6984
:102F800003F01003102B19D1FB681B686FF01002BF
:102F90005A61FB6800221A63FB68202283F83D20F7
:102FA000FB68002283F83E20FB681A6CFB681A64F9
:102FB000FB68002283F83C20012330E0FEF780FD0F
:102FC00002467B68D31ABA689A4202D3BB68002BC8
:102FD0001DD1FB681B685B6903F04003402B16D0D2
:102FE000FB6800221A63FB68202283F83D20FB68FF
:102FF000002283F83E20FB681B6C43F02002FB6834
:103000001A64FB68002283F83C20012307E0FB6878
:103010001B685B6903F04003402BAED100231846C8
:103020001037BD4680BD80B483B000AF78607B6848
:103030001B685B6903F48063B3F5806F1BD17B6809
:103040001B686FF480625A617B6800221A637B6898
:10305000202283F83D207B68002283F83E207B6895
:103060001B6C43F004027B681A647B68002283F8BF
:103070003C20012300E0002318460C37BD4680BCED
:103080007047000080B586B000AF78607B68002B89
:1030900001D1012372E27B681B6803F00103002B5E
:1030A00000F08780924B5B6803F00C03042B0CD07C
:1030B0008F4B5B6803F00C03082B12D18C4B5B68C1
:1030C00003F48033B3F5803F0BD1894B1B6803F4C5
:1030D0000033002B6CD07B685B68002B68D1012328
:1030E0004CE27B685B68B3F5803F06D1804B1B6880
:1030F0007F4A43F4803313602EE07B685B68002BCB
:103100000CD17B4B1B687A4A23F480331360784BD5
:103110001B68774A23F4802313601DE07B685B689B
:10312000B3F5A02F0CD1724B1B68714A43F4802376
:1031300013606F4B1B686E4A43F4803313600BE0DF
:103140006B4B1B686A4A23F480331360684B1B681F
:10315000674A23F4802313607B685B68002B13D0DD
:10316000FEF7AEFC386108E0FEF7AAFC02463B69B8
:10317000D31A642B01D9032300E25D4B1B6803F4CF
:103180000033002BF0D014E0FEF79AFC386108E021
:10319000FEF796FC02463B69D31A642B01D9032340
:1031A000ECE1534B1B6803F40033002BF0D100E03B
:1031B00000BF7B681B6803F00203002B63D04C4BFD
:1031C0005B6803F00C03002B0BD0494B5B6803F0EA
:1031D0000C03082B1CD1464B5B6803F48033002B97
:1031E00016D1434B1B6803F00203002B05D07B680C
:1031F0001B69012B01D00123C0E13D4B1B6823F06B
:10320000F8027B685B69DB00394913430B603AE0E5
:103210007B681B69002B20D0364B01221A60FEF719
:103220004FFC386108E0FEF74BFC02463B69D31ABD
:10323000022B01D90323A1E12D4B1B6803F00203EC
:10324000002BF0D02A4B1B6823F0F8027B685B69E7
:10325000DB00274913430B6015E0264B00221A6060
:10326000FEF72EFC386108E0FEF72AFC02463B69B7
:10327000D31A022B01D9032380E11D4B1B6803F0F5
:103280000203002BF0D17B681B6803F00803002BBE
:103290003AD07B689B69002B19D0174B01221A602A
:1032A000FEF70EFC386108E0FEF70AFC02463B69B7
:1032B000D31A022B01D9032360E10D4B5B6A03F0A3
:1032C0000203002BF0D0012000F0CEFA1CE00A4BE4
:1032D00000221A60FEF7F4FB38610FE0FEF7F0FB06
:1032E00002463B69D31A022B08D9032346E100BFEB
:1032F000001002400000424280044242924B5B6A4E
:1033000003F00203002BE9D17B681B6803F0040380
:10331000002B00F0A6800023FB758B4BDB6903F0CC
:103320008053002B0DD1884BDB69874A43F08053D3
:10333000D361854BDB6903F08053BB60BB6801231D
:10334000FB75824B1B6803F48073002B18D17F4BF5
:103350001B687E4A43F480731360FEF7B1FB38614B
:1033600008E0FEF7ADFB02463B69D31A642B01D996
:10337000032303E1754B1B6803F48073002BF0D02B
:103380007B68DB68012B06D16F4B1B6A6E4A43F0EA
:10339000010313622DE07B68DB68002B0CD16A4BC4
:1033A0001B6A694A23F001031362674B1B6A664A72
:1033B00023F0040313621CE07B68DB68052B0CD14F
:1033C000614B1B6A604A43F0040313625E4B1B6A45
:1033D0005D4A43F0010313620BE05B4B1B6A5A4AE0
:1033E00023F001031362584B1B6A574A23F004036E
:1033F00013627B68DB68002B15D0FEF761FB386138
:103400000AE0FEF75DFB02463B69D31A41F28832BF
:10341000934201D90323B1E04B4B1B6A03F0020333
:10342000002BEED014E0FEF74BFB38610AE0FEF70C
:1034300047FB02463B69D31A41F28832934201D9D5
:1034400003239BE0404B1B6A03F00203002BEED1E9
:10345000FB7D012B05D13C4BDB693B4A23F08053BC
:10346000D3617B68DB69002B00F08780364B5B689B
:1034700003F00C03082B61D07B68DB69022B46D17B
:10348000334B00221A60FEF71BFB386108E0FEF7A1
:1034900017FB02463B69D31A022B01D903236DE0C7
:1034A000294B1B6803F00073002BF0D17B681B6A6B
:1034B000B3F5803F08D1244B5B6823F400327B686E
:1034C0009B68214913434B601F4B5B6823F47412C4
:1034D0007B68196A7B685B6A0B431B4913434B602B
:1034E0001B4B01221A60FEF7EBFA386108E0FEF789
:1034F000E7FA02463B69D31A022B01D903233DE0C8
:10350000114B1B6803F00073002BF0D035E0104B1B
:1035100000221A60FEF7D4FA386108E0FEF7D0FA0C
:1035200002463B69D31A022B01D9032326E0064B3E
:103530001B6803F00073002BF0D11EE07B68DB6991
:10354000012B07D1012319E0001002400070004058
:10355000600042420B4B5B68FB60FB6803F4803207
:103560007B681B6A9A4206D1FB6803F470127B6881
:103570005B6A9A4201D0012300E000231846183705
:10358000BD4680BD0010024080B584B000AF7860B9
:1035900039607B68002B01D10123D0E06A4B1B68A6
:1035A00003F007033A689A4210D9674B1B6823F06F
:1035B000070265493B6813430B60634B1B6803F0CC
:1035C00007033A689A4201D00123B8E07B681B6880
:1035D00003F00203002B20D07B681B6803F0040378
:1035E000002B05D0594B5B68584A43F4E0635360A5
:1035F0007B681B6803F00803002B05D0534B5B6806
:10360000524A43F460535360504B5B6823F0F0021E
:103610007B689B684D4913434B607B681B6803F0D4
:103620000103002B40D07B685B68012B07D1474B1F
:103630001B6803F40033002B15D101237FE07B6866
:103640005B68022B07D1414B1B6803F00073002B12
:1036500009D1012373E03D4B1B6803F00203002BEB
:1036600001D101236BE0394B5B6823F003027B68D7
:103670005B68364913434B60FEF722FAF8600AE0B4
:10368000FEF71EFA0246FB68D31A41F288329342D3
:1036900001D9032353E02D4B5B6803F00C027B68D8
:1036A0005B689B009A42EBD1274B1B6803F0070332
:1036B0003A689A4210D2244B1B6823F00702224931
:1036C0003B6813430B60204B1B6803F007033A6809
:1036D0009A4201D0012332E07B681B6803F00403A7
:1036E000002B08D0194B5B6823F4E0627B68DB6831
:1036F000164913434B607B681B6803F00803002BDB
:1037000009D0124B5B6823F460527B681B69DB00B5
:103710000E4913434B6000F021F802460B4B5B68E7
:103720001B0903F00F030A49CB5C22FA03F3094A91
:103730001360094B1B681846FEF780F900231846F2
:103740001037BD4680BD00BF00200240001002407F
:10375000EC690008440000204800002080B487B0D5
:1037600000AF0023FB600023BB6000237B610023CC
:103770007B6000233B611E4B5B68FB60FB6803F0D2
:103780000C03042B02D0082B03D027E0194B3B611C
:1037900027E0FB689B0C03F00F03174AD35C7B60A8
:1037A000FB6803F48033002B10D0114B5B685B0C7B
:1037B00003F00103114AD35CBB607B680D4A03FB35
:1037C00002F2BB68B2FBF3F37B6104E07B680C4A56
:1037D00002FB03F37B617B693B6102E0054B3B61CC
:1037E00000BF3B6918461C37BD4680BC704700BF10
:1037F0000010024000127A00046A0008146A0008EF
:1038000000093D0080B400AF024B1B681846BD465E
:1038100080BC70474400002080B500AFFFF7F2FF86
:103820000246054B5B681B0A03F007030349CB5CA8
:1038300022FA03F3184680BD00100240FC6900081C
:1038400080B500AFFFF7DEFF0246054B5B68DB0A81
:1038500003F007030349CB5C22FA03F3184680BD4B
:1038600000100240FC69000880B485B000AF7860A9
:103870000A4B1B680A4AA2FB03235B0A7A6802FB15
:1038800003F3FB6000BFFB685A1EFA60002BF9D1FE
:1038900000BF00BF1437BD4680BC70474400002005
:1038A000D34D621080B582B000AF78607B68002B8A
:1038B00001D1012342E07B6893F84130DBB2002B59
:1038C00006D17B68002283F840207868FDF700FC71
:1038D0007B68242283F841207B681B68DA687B6858
:1038E0001B6822F40052DA60786800F071F97B6896
:1038F0001B681A697B681B6822F490421A617B6816
:103900001B685A697B681B6822F02A025A617B682F
:103910001B68DA687B681B6842F40052DA607B68D7
:1039200000225A647B68202283F841207B68202291
:1039300083F842207B6800225A6300231846083728
:10394000BD4680BD80B58AB002AFF860B9603B600B
:103950001346FB8000237B61FB6893F84130DBB2A8
:10396000202B75D1BB68002B02D0FB88002B01D126
:1039700001236EE0FB6800225A64FB68212283F871
:103980004120FEF79DF87861FB68FA889A84FB680D
:10399000FA88DA84FB689B68B3F5805F08D1FB681E
:1039A0001B69002B04D10023FB61BB68BB6103E0F2
:1039B000BB68FB610023BB612EE03B6800937B6921
:1039C00000228021F86800F048F80346002B05D05B
:1039D000FB68202283F8412003233AE0FB69002B97
:1039E0000BD1BB691B881A46FB681B68C2F308022F
:1039F0005A60BB690233BB6107E0FB691A78FB6858
:103A00001B685A60FB690133FB61FB68DB8C9BB26E
:103A1000013B9AB2FB68DA84FB68DB8C9BB2002B1B
:103A2000CBD13B6800937B6900224021F86800F00D
:103A300014F80346002B05D0FB68202283F84120B0
:103A4000032306E0FB68202283F84120002300E0E6
:103A5000022318462037BD4680BD80B586B000AF32
:103A6000F860B9603B601346FB713BE03B6AB3F121
:103A7000FF3F37D0FEF724F802463B68D31A3A6A74
:103A80009A4202D33B6A002B01D103233AE0FB6840
:103A90001B68DB6803F00403002B23D0BB68802B7A
:103AA00020D0BB68402B1DD0FB681B681B6803F04F
:103AB0000803082B16D100237B61FB681B681B6879
:103AC0007B61FB681B685B687B617B69F86800F061
:103AD0001DF8FB6808225A64FB68002283F8402026
:103AE00001230FE0FB681B681A68BB681340BA68C3
:103AF0009A420CBF01230023DBB21A46FB799A429B
:103B0000B4D0002318461837BD4680BD80B495B0A8
:103B100000AF78607B681B680C337B637B6B53E87A
:103B2000003F3B633B6B23F49073FB647B681B6833
:103B30000C33FA6C3A64FB63F96B3A6C41E800238E
:103B4000BB63BB6B002BE5D17B681B6814333B6206
:103B50003B6A53E8003FFB61FB6923F00103BB6450
:103B60007B681B681433BA6CFA62BB62B96AFA6A82
:103B700041E800237B627B6A002BE5D17B681B6BED
:103B8000012B19D17B681B680C33FB60FB6853E881
:103B9000003FBB60BB6823F010037B647B681B683D
:103BA0000C337A6CBA617B617969BA6941E80023A8
:103BB0003B613B69002BE5D17B68202283F84220E2
:103BC0007B6800221A6300BF5437BD4680BC704733
:103BD00080B584B000AF78607B681B681B6923F4F4
:103BE00040517B68DA687B681B680A431A617B680E
:103BF0009A687B681B691A437B685B691343BB60E7
:103C00007B681B68DB6823F4B05323F00C037A68ED
:103C10001268B9680B43D3607B681B685B6923F447
:103C200040717B689A697B681B680A435A617B68AC
:103C30001B682C4A934203D1FFF702FEF86002E0B2
:103C4000FFF7EAFDF860FA6813469B0013449A00F8
:103C50001A447B685B689B00B2FBF3F3224AA2FB29
:103C600003235B091901FA6813469B0013449A0069
:103C70001A447B685B689B00B2FBF3F21A4BA3FB10
:103C800002035B09642000FB03F3D31A1B013233E8
:103C9000154AA2FB03235B0903F0F0031944FA68F9
:103CA00013469B0013449A001A447B685B689B0090
:103CB000B2FBF3F20C4BA3FB02035B09642000FB95
:103CC00003F3D31A1B013233074AA2FB03235B0918
:103CD00003F00F027B681B680A449A6000BF10372C
:103CE000BD4680BD003801401F85EB51002B2DE9FA
:103CF000F0471D46BBBF03F100431D4600232D23A3
:103D000088B01446B8BF1446129A109E1370149BC4
:103D1000DDF84CA023F02008B8F1460F05D0B8F12B
:103D2000450F00D10136022300E0032307AA0492C5
:103D300006AACDE902A2CDE9003622462B4600F0C4
:103D40006FFEB8F1470F074619D1119BDB070ED55F
:103D500000EB06090022002320462946FCF724FE3A
:103D600008B1CDF81C903022079B4B451ED3384636
:103D7000079B159ADB1B136008B0BDE8F087B8F10C
:103D8000460F00EB0609E5D10378302B0AD100225B
:103D9000002320462946FCF707FE18B9C6F10106A4
:103DA000CAF80060DAF800309944D3E7591C07914B
:103DB0001A70D9E7F7B50029B6BF2D232B23494246
:103DC00009290270437029DD0DF107031D460A27FA
:103DD000B1FBF7F61A4607FB1614303402F8014C13
:103DE0000C46632C314603F1FF33F1DC3031941E75
:103DF00003F8011C2346411CAB420AD30DF1090311
:103E00009B1AAC4288BF002302330344181A03B044
:103E1000F0BD13F8016B01F8016FEDE7302330318D
:103E20008370C170031DF1E72DE9F04F91B00C468E
:103E3000DDF8688016461F46054600F0E1FC036881
:103E400018460893FCF784F900230E93D8F8003045
:103E50000990073323F0070303F1080294F818A030
:103E6000D4F800B0C8F80020D3E9008929F0004355
:103E70000B93CDF828804FF0FF32DDE90A01C4E949
:103E800012899C4BFCF7C2FD70BBDDE90A014FF0C3
:103E9000FF32984BFCF79CFD30BB002200234046CC
:103EA0004946FCF78BFD10B12D2384F84330924A2C
:103EB000924BBAF1470F94BF9046984603234FF0B8
:103EC000000923612BF00403236033462146284672
:103ED00000970FAA00F0D4F9013040F090804FF025
:103EE000FF3011B0BDE8F08F42464B464046494690
:103EF000FCF78CFD48B14B46002BB8BF2D23804A00
:103F0000B8BF84F843307F4BD3E763680AF0DF0122
:103F10005A1C3FD10623636000224BF48063236068
:103F200006920EAACDE904A20DAA03920DF1330266
:103F3000CDE9013263684246009328464B460A9118
:103F4000FFF7D4FE0A99804647290D9928D1C81C4D
:103F500002DB6368994240DDAAF1020A5FFA8AFA3D
:103F60005246013904F150000D91FFF723FF0E9ADC
:103F700081461318012A236102DC2268D20701D589
:103F8000013323619DF83330002B9ED02D2384F81C
:103F900043309AE74729BFD1002BBDD10123BAE7AF
:103FA000BAF1650FDCD9BAF1660F18D10029636840
:103FB0000BDD216113B92268D00702D501330B4410
:103FC00023614FF00009A165DCE713B92268D2072D
:103FD00001D50233F4E70123F2E74FF0670A0E9BA5
:103FE000994205DB23682161D807EAD54B1CE7E736
:103FF0000029CCBF0122C1F102021344E0E723688B
:104000005A0507D42369424631462846B84701304D
:104010002BD164E7BAF1650F40F2DC80D4E91201DC
:1040200000220023FCF7C0FC002833D001233146D6
:104030002846354AB84701303FF451AFDDE90D3825
:10404000434502DB2368D8070FD5DDE90823314655
:104050002846B84701303FF442AF4FF0000908F15D
:10406000FF3804F11A0AC84509DC23689B0700F1F0
:104070000281E0680F9B9842B8BF184631E70123E0
:10408000524631462846B84701303FF428AF09F17F
:104090000109E8E70D9B002B38DC01233146284657
:1040A000194AB84701303FF41AAFDDE90D3959EA32
:1040B000030302D12368D907D7D5DDE908233146A8
:1040C0002846B84701303FF40AAF4FF0000A04F128
:1040D0001A0B0D9B5B42534501DC4B4693E70123D2
:1040E0005A4631462846B84701303FF4F8AE0AF147
:1040F000010AEEE7FFFFEF7F166A00081A6A000860
:104100001E6A0008226A0008266A0008A36DDDF80E
:1041100038A05345A8BF5346002B994636DC4FF0D4
:10412000000B29EAE97904F11A02A36D0A93A3EBC3
:1041300009035B4531DC0D9B9A453ADC2368DA07BD
:1041400037D40D9BAAEB03090A9BAAEB03039945FD
:10415000A8BF9946B9F1000F33DC4FF0000829EAF7
:10416000E97904F11A0B0D9BAAEB0303A3EB0903F6
:1041700043457FF77AAF01235A4631462846B84770
:1041800001303FF4ACAE08F10108ECE7424631469D
:104190002846B8470130C2D1A1E60123314628465E
:1041A0000A92B84701303FF49AAE0A9A0BF1010B1C
:1041B000BBE73146DDE908232846B8470130C0D1C6
:1041C0008DE60A9A4B46314628464244B8470130AC
:1041D000C3D184E6DDF838A0BAF1010F01DCDB07BA
:1041E00036D50123424631462846B84701303FF4D0
:1041F00076AEDDE9082331462846B84701303FF462
:104200006EAED4E91201002200230AF1FF3AFCF756
:10421000CBFBC0B9534608F1010231462846B847E6
:1042200001300CD15BE601235A4631462846B84797
:1042300001303FF454AE08F10108D045F3DB4B46A2
:1042400004F15002E0E64FF0000804F11A0BF4E725
:1042500001234246E1E701234A4631462846B84752
:1042600001303FF43CAE08F10108E3680F995B1A96
:104270004345F0DCFDE64FF0000804F11909F4E7CE
:104280002DE9F047164698468A680B69074693421F
:10429000B8BF1346336091F843200C46DDF82090F8
:1042A0000AB1013333602368990642BF3368023391
:1042B0003360256815F0060506D104F1190AE36894
:1042C00032689B1AAB422BDC94F843302268003BE7
:1042D00018BF0123920630D44146384604F1430208
:1042E000C847013023D02368226903F00603042B5A
:1042F00014BF002533684FF0000608BFE56804F1DD
:104300001A0408BFED1A54F8123C08BF25EAE575F7
:104310009342C4BF9B1AED18B5421AD1002008E0A1
:104320000123524641463846C847013003D14FF079
:10433000FF30BDE8F0870135C1E73020E11881F892
:1043400043005A1C94F845102244023382F843106B
:10435000C2E70123224641463846C8470130E6D02D
:104360000136D9E72DE9FF470F7E9146782F804629
:104370000C469A460C9E01F1430207D8622F0AD8D8
:10438000002F00F0D380582F00F0BA8004F14206CD
:1043900084F842703AE0A7F16303152BF6D801A127
:1043A00051F823F0FD430008114400088D43000834
:1043B0008D4300088D4300088D4300081144000818
:1043C0008D4300088D4300088D4300088D4300088D
:1043D000134500083B440008CD4400088D43000805
:1043E0008D430008354500088D4300083B44000814
:1043F0008D4300088D430008D544000833681A1D1A
:104400001B68326004F1420684F8423001239EE0CA
:1044100033682068191D3160060601D51D6803E068
:104420004506FBD5B3F90050002D03DA2D236D426C
:1044300084F843300A23594811E02168336808069C
:1044400053F8045B02D4490648BFADB26F2F336006
:1044500014BF0A2308235148002184F843106668DA
:10446000002EA8BF2168A660A4BF21F0040121602E
:104470000DB9002E4BD01646B5FBF3F103FB1157D7
:10448000C75D06F8017D2F46BB420D46F4D9082BC7
:104490000BD12368DF0708D5236961689942DEBF25
:1044A000302306F8013C06F1FF36921B22614B4691
:1044B00021464046CDF800A003AAFFF7E1FE0130F7
:1044C0004AD14FF0FF3004B0BDE8F087236843F0D5
:1044D000200323607827324884F8457023683168C8
:1044E0001F0651F8045B02D45F0648BFADB23160CD
:1044F000D90744BF43F0200323601DB11023ABE76D
:104500002648E9E7236823F020032360F6E71646F0
:10451000BDE733682568181D616930602E061B6889
:1045200001D5196002E06806FBD519800023164604
:104530002361BCE7336800211A1D32601E6862687F
:10454000304600F0D4F908B1801B606063682361D5
:10455000002384F84330AAE732464946404623699F
:10456000D0470130ADD023689B0713D4E068039B8C
:104570009842B8BF1846A6E701233246494640464E
:10458000D04701309DD00135E36803995B1AAB42F7
:10459000F2DCEBE7002504F11906F5E7286A0008CC
:1045A000396A0008002310B50446C0E90033C0E9A9
:1045B0000433836081814366C28183611946082286
:1045C0005C3000F014F90D4B246263620C4BA36263
:1045D0000C4BE3620C4B23630C4B9C4206D003F163
:1045E0006802944202D0D0339C4205D104F15800B5
:1045F000BDE8104000F078B910BD00BF6947000861
:104600008B470008C3470008E7470008EC0200207A
:10461000024A0349034800F069B800BF5000002077
:104620005D6200086000002041680C4B10B59942A3
:10463000044601D001F012FEA168094B994202D054
:10464000204601F00BFEE168064B994204D020465B
:10465000BDE8104001F002BE10BD00BFEC0200201A
:1046600054030020BC03002010B50B4B0B4C0C4A2C
:1046700020461A6004210022FFF794FF04F168002D
:1046800001220921FFF78EFF04F1D0000222BDE8CC
:1046900010401221FFF786BF24040020EC02002006
:1046A00011460008014800F020B900BF2D04002089
:1046B000014800F01BB900BF2D04002010B50446CE
:1046C000FFF7F0FF236A1BB1BDE81040FFF7F0BF12
:1046D000044B2362044B1B68002BF5D1FFF7C4FF8A
:1046E000F2E700BF29460008240400202DE9F84322
:1046F0000746884614460026D4E90195B9F1010918
:1047000005D52468002CF7D13046BDE8F883AB8985
:10471000012B07D9B5F90E30013303D029463846AD
:10472000C04706436835E9E70EB46FF0004100B5B5
:104730009CB01DAB0290069007910491084809496E
:1047400053F8042B0591006802A9019301F00AFCBB
:104750000022029B1A701CB05DF804EB03B0704796
:104760005C0000200802FFFF10B50C46B1F90E10E6
:1047700000F06CF80028ABBF636DA3891B1823F40D
:104780008053ACBF6365A38110BD2DE9F0411F4686
:104790008B890546DB050C46164605D5022300220B
:1047A000B1F90E1000F040F8A389324623F480538B
:1047B000A38128463B46B4F90E10BDE8F04100F055
:1047C00057B810B50C46B1F90E1000F02DF8431C87
:1047D000A38915BF606523F4805343F48053A381FC
:1047E00018BFA38110BDB1F90E1000F00DB803463B
:1047F0000244934200D1704703F8011BF9E700001F
:10480000004870479C01002038B50023054D044640
:1048100008462B60FCF72FFD431C02D12B6803B127
:10482000236038BD2804002038B5044608461146E8
:104830000022054D2A601A46FCF741FD431C02D1B7
:104840002B6803B1236038BD2804002038B5044626
:10485000084611460022054D2A601A46FCF7D2FC94
:10486000431C02D12B6803B1236038BD280400200B
:1048700038B50446084611460022054D2A601A46FE
:10488000FCF7DDFC431C02D12B6803B1236038BD6B
:1048900028040020014B1868704700BF5C0000200E
:1048A00070B500260C4D0D4C641BA410A64209D116
:1048B00002F070F800260A4D0A4C641BA410A642B0
:1048C00005D170BD55F8043B98470136EEE755F821
:1048D000043B98470136F2E7906D0008906D0008A0
:1048E000906D0008946D000870477047704703464C
:1048F00010B5C9B202449342184601D1002003E02A
:10490000047801338C42F6D110BD2DE9F74F0369CD
:104910000C690746A3427EDB013CA30000F11405AD
:1049200001F11408009305EB8403019358F8243037
:1049300055F8242001339A42B2FBF3F608EB8409C0
:104940002ED34FF0000AC446AE46D3465CF8043B73
:1049500098B206FB00A01B0C020C06FB0323DEF83A
:10496000002080B292B2121A5A44DEF800004FEAD8
:10497000134A9BB2C3EB224303EB104392B242EAC9
:104980000342E1454FEA234B4EF8042BDED2009B55
:10499000EB582BB9019B043B9D421A462FD33C6137
:1049A000384601F07BF9002825DB2946002058F81D
:1049B000042BD1F800C01FFA82FE1FFA8CF3A3EB80
:1049C0000E030344120CC2EB234202EB1C429BB2C7
:1049D00043EA0243C1454FEA224041F8043BE6D294
:1049E00055F8242005EB840322B9043B9D421A4666
:1049F0000BD33C610136304603B0BDE8F08F12683E
:104A0000043B002ACBD1013CC6E71268043B002AD4
:104A1000EFD1013CEAE70020EEE7000000000000D3
:104A20002DE9F04F14461D46C76997B08346CDE97E
:104A30000245239E7FB9102000F002FE0246CBF80B
:104A40001C0020B9EF21A84BA84801F067FCC0E981
:104A500001770760C760DBF81C30196859B15A68E4
:104A6000012393404A608B60584600F0DFFE00222D
:104A7000DBF81C301A602B1EAFBF0023012223F08D
:104A800000430393A8BF3360DDF80C80984BB8BF98
:104A9000326033EA080312D142F20F73229A136094
:104AA000C8F31303234300F05085249BDFF844A28E
:104AB000002B00F052850AF1030300F04CBDDDE944
:104AC0000223CDE90C23DDE90C0100220023FBF7D2
:104AD0006BFF074658B10123229A1360249B13B140
:104AE000854B249A1360DFF814A200F036BD14AB96
:104AF000019315AB00935846DDE90C2301F07EF9D4
:104B0000C8F30A568146002E77D0DDE90C010D9BD3
:104B1000A6F2FF36C3F3130343F07F5343F440136D
:104B2000129719460022764BFBF71EFB68A3D3E9C8
:104B30000023FBF7D1FC68A3D3E90023FBF716FBA6
:104B4000044630460D46FBF75DFC65A3D3E9002320
:104B5000FBF7C2FC02460B4620462946FBF706FB44
:104B600004460D46FBF768FF002207460023204657
:104B70002946FBF723FF40B13846FBF743FC2246AA
:104B80002B46FBF711FF00B9013F162F53D8DDE983
:104B90000C015C4B03EBC703D3E90023FBF70EFFCB
:104BA00000284AD00023013F0F93149B9B1B5A1EE1
:104BB00046BFC3F1010800234FF00008099248BF27
:104BC0000993002F3BDB099B0E973B44099300237D
:104BD0000A93209B092B66D8052BC4BF043B209366
:104BE000209BC8BF0024A3F10203D8BF0124032BDC
:104BF00064D8DFE803F02B383656DDE914631E4431
:104C000006F23243202BC1BFC3F1400308FA03F878
:104C100006F2124324FA03F3D6BFC3F1200348EA95
:104C2000030004FA03F0FBF7DDFB0122A1F1F873A6
:104C3000013E129275E70123B6E70F90B5E77B427C
:104C40000A930023A8EB07080E93C2E700230B93F7
:104C5000219B002B35DC01231A46CDE90733219235
:104C60000BE00123F3E700230B93219BFB18089330
:104C70000133012B0793B8BF012300210422DBF885
:104C80001C0002F114059D421FD94160584600F0F6
:104C90008DFD8246002839D1024640F2AF111A4BF1
:104CA000D2E60123E0E7012400230B9420934FF088
:104CB000FF330022CDE907331223D0E701230B9302
:104CC000F5E7219BCDE90733D7E701315200D8E75B
:104CD00061436F63A787D23FB3C8608B288AC63F02
:104CE000FB799F501344D33F576A00086E6A00084F
:104CF0000000F07F536A0008276A0008266A00084F
:104D00000000F83F686B0008C66A0008DBF81C303A
:104D10001860079B0E2B00F2A480002C00F0A180ED
:104D2000002F33DD864B07F00F0203EBC203F805BB
:104D3000D3E90034CDE904344FEA271416D5DDE970
:104D40000C01804B0326D3E90823FBF7EFFCCDE9E8
:104D5000020104F00F047B4D54B9DDE90423DDE9C1
:104D60000201FBF7E3FCCDE9020128E00226F2E7AD
:104D7000E10708D5DDE90401D5E90023FBF7ACFB29
:104D8000CDE90401013664100835E5E700F0D28072
:104D9000DDE90C017C426A4B04F00F0203EBC20315
:104DA000D3E90023FBF798FB02260023CDE902019B
:104DB000644D2411002C40F0B280002BD3D1DDE9EA
:104DC00002450F9B002B00F0B780002220462946A9
:104DD0005D4BFBF7F3FD002800F0AE80079B002B36
:104DE00000F0AA80089B002B37DD7B1E2046049331
:104DF00000222946554BFBF76FFBCDE90201089CC9
:104E000001363046FBF7FEFADDE90223FBF764FBCF
:104E100000224F4BFBF7AAF90546A1F15076002C72
:104E200040F09A80DDE9020100224A4BFBF79CF931
:104E300002460B46CDE902232A463346FBF7DCFD4A
:104E4000002840F08E82DDE902012A4606F1004387
:104E5000FBF7B4FD002840F02781DDE90C34CDE9F3
:104E60000234159B002BC0F263810E2F00F360818A
:104E7000334B03EBC703D3E90034CDE90434219B62
:104E8000002B03DA079B002B40F30081DDE902458C
:104E90005646DDE9042320462946FBF747FCFBF78D
:104EA000CBFD8046FBF7AEFADDE90423FBF714FBEC
:104EB00002460B4620462946FBF756F908F1300416
:104EC000079D06F8014BA6EB0A04A54202460B46D5
:104ED00040F01681FBF74AF9DDE9042304460D464C
:104EE000FBF78AFD002840F0F880DDE90423204626
:104EF0002946FBF759FD18B118F0010F40F0ED807D
:104F00004946584600F092FC00233370229B01373B
:104F10001F60249B002B00F020831E601DE3E2072E
:104F200005D5D5E90023FBF7D7FA01230136641034
:104F300008353FE7022642E7079C049761E700BF78
:104F4000686B0008406B00080000F03F0000244040
:104F500000001C4000001440704B0B9903EBC4038D
:104F600053E902235444002945D000206C49FBF743
:104F7000DDFB33462A46FBF7F7F85646CDE910012C
:104F8000DDE90201FBF758FD0546FBF73BFA024657
:104F90000B46DDE90201FBF7E7F802460B46303528
:104FA000CDE90223DDE9102306F8015BFBF706FDDE
:104FB000002863D1DDE9022300205A49FBF7D4F829
:104FC000DDE91023FBF7FAFC002840F08780A642B9
:104FD0003FF443AFDDE910010022534BFBF77CFAAD
:104FE0000022CDE91001DDE902014F4BFBF774FA15
:104FF000CDE90201C4E731462846FBF76DFA564673
:10500000CDE910011394DDE90201FBF715FD05461A
:10501000FBF7F8F902460B46DDE90201FBF7A4F8BD
:1050200002460B46303506F8015BA642CDE9022365
:105030004FF0000224D1DDE91001394BFBF796F85F
:1050400002460B46DDE90201FBF7D6FC002845D1FC
:10505000DDE9102300203249FBF786F802460B46B3
:10506000DDE90201FBF7AAFC00283FF4F6AE139E2F
:10507000731E139316F8013C302BF8D0049F3FE7C2
:10508000294BFBF729FACDE90201BCE70CD1DDE998
:1050900004010022254BFBF71FFADDE90223FBF791
:1050A000A1FC002800F05B8100242546219B564688
:1050B000DB43049300272146584600F0B7FB002D40
:1050C000DCD02FB1AF4203D03946584600F0AEFBDA
:1050D0002946584600F0AAFBD0E7049733461E46FF
:1050E00013F8012D392A07D19A45F8D1049A0132D3
:1050F000049230228AF800201A7801321A70BDE733
:105100000022094BFBF7E8F90022002304460D4674
:10511000FBF74AFC00283FF4BCAEF1E6686B0008E0
:105120000000E03F0000F03F000024400000144079
:105130000B9A002A00F0DB80209A012A00F3BF803E
:10514000129A002A00F0B78003F2334346460A9CC5
:10515000099A01211A4458469844099200F01AFC11
:1051600005465EB1099B002B08DDB342A8BF33465C
:10517000099AA8EB0308F61AD31A09930A9BF3B10C
:105180000B9B002B00F0B7808CB129462246584675
:1051900000F0BEFC4A4601460546584600F010FCA9
:1051A00049460490584600F041FB049B99460A9BEF
:1051B0001A1B04D04946584600F0AAFC814601213A
:1051C000584600F0E7FB0E9B0446002B00F0C98117
:1051D0001A460146584600F09BFC209B0446012BD2
:1051E00000F38F80029B002B40F08780039BC3F36A
:1051F0001303002B40F08380039B23F000431B0D1F
:105200001B052BB1099B08F1010801330993012308
:105210000A930E9B002B00F0AA81236904EB830301
:10522000186900F06BFBC0F12000099B184410F0D6
:105230001F0071D0C0F12003042B65DD099BC0F174
:105240001C000344804406440993B8F1000F05DDB7
:1052500049464246584600F0B5FC8146099B002B62
:1052600005DD21461A46584600F0ACFC04460F9B6B
:10527000002B53D02146484600F010FD00284DDA9F
:105280007B1E494604930A220023584600F0F0FA98
:105290000B9B8146002B00F06C81002329460A22DB
:1052A000584600F0E5FA089B0546002B61DC209B80
:1052B000022B3BDC5DE0149BC3F1360346E7079B02
:1052C0005C1E0A9BA342BFBF0A9B0E9AE31AD21828
:1052D000A8BF1C1B079BBEBF0A940E920024002B84
:1052E000B5BFA8EB030646460023079B30E74646BA
:1052F0000A9C0B9D35E70A9A5CE7002388E7029B2E
:1053000086E700230A9388E79FD0099A1C331A4442
:1053100098441E44099298E70346F6E7079B0497D2
:10532000002B20DC0893209B022B1EDD089B002B0A
:105330007FF4BCAE21460522584600F099FA01469A
:105340000446484600F0AAFC00287FF7AFAE3123A0
:10535000564606F8013B049B01330493AAE6079CDA
:1053600004972546F3E7079B08930B9B002B00F05F
:105370000481002E05DD29463246584600F022FC05
:1053800005460A9B002B5AD05846696800F00EFA71
:10539000064628B9024640F2EF21834BFFF754BB83
:1053A0002A6905F10C01023292000C3000F0A8FFCE
:1053B00001223146584600F005FC2F4605460AF109
:1053C00001030793089B53440B93029B03F00103D3
:1053D0000A93079B2146013B48460293FFF795FA43
:1053E0003946089000F13008484600F057FC2A463C
:1053F00009902146584600F06DFCC268064602BB83
:105400000146484600F04AFC0246314658460C9296
:1054100000F00CFA209B0C9A079E43EA02010A9BBB
:10542000194310D1B8F1390F29D0099B002B02DDA7
:10543000089B03F13108029B83F800803BE6284675
:10544000BBE70122E1E7099B002B04DB20990B431A
:105450000A990B4320D1002AEDDD49460122584626
:1054600000F0B0FB2146814600F018FC002803DC68
:10547000E1D118F0010FDED0B8F1390FD8D13923BE
:10548000029A137033461E4616F8012C013B392A46
:1054900052D001321A700EE6002A07DDB8F1390F3A
:1054A000EDD0029A08F10103137004E6079B079AF6
:1054B00003F8018C0B9B934228D0494600230A2213
:1054C000584600F0D5F9AF4281464FF000034FF047
:1054D0000A023946584607D100F0CAF90746054680
:1054E000079B0133079374E700F0C2F9294607468A
:1054F00000230A22584600F0BBF90546F0E7089B56
:105500000027002BCCBF1E460126564449460122E7
:10551000584600F057FB2146814600F0BFFB0028AB
:10552000B0DC02D118F0010FACD133461E4613F89F
:10553000012D302AFAD0BEE59A45A4D1049B01334F
:10554000049331238AF80030B5E5249BDFF85CA092
:105550001BB10AF10803249A1360504617B0BDE846
:10556000F08F209B012B7FF73DAE0E9B0A9301200D
:105570005BE6089B002B7FF7D6AE56462146484691
:10558000FFF7C3F900F13008089B06F8018BA6EB82
:105590000A029342B3DD494600230A22584600F02E
:1055A00067F98146EAE700BFC66A00084A6A000850
:1055B00038B50546002940D051F8043C0C1F002B9B
:1055C000B8BFE41800F0E6F81C4A136833B963600A
:1055D00014602846BDE8384000F0E2B8A34208D97C
:1055E000206821188B4201BF19685B680918216087
:1055F000EDE71A465B680BB1A342FAD9116850185F
:10560000A0420BD120680144501883421160E0D1C0
:1056100018685B68084410605360DAE702D90C230D
:105620002B60D6E7206821188B4201BF19685B68A0
:105630000918216063605460CBE738BD3404002052
:10564000024B0146186800F025B800BF5C0000203E
:1056500070B50F4E0C463168054611B900F040FE9A
:1056600030602146284600F03BFE431C03D14FF03A
:10567000FF34204670BDC41C24F00304A042F8D0BF
:10568000211A284600F02CFE0130F2D1EFE700BFCE
:10569000300400202DE9F843CD1C25F00305083522
:1056A0000C2D38BF0C25002D064601DBA94204D97C
:1056B0000C2333600020BDE8F883DFF8D48000F0CD
:1056C00069F8D8F800301C4644BB29463046FFF73D
:1056D000BFFF431C044658D1D8F800402746002F8E
:1056E00043D1002C4BD023683946304604EB0309E4
:1056F00000F0F6FD814542D1216830466D1A2946F9
:10570000FFF7A6FF01303AD023682B442360D8F876
:1057100000305A6862BBC8F800700FE02268521B64
:1057200020D40B2A17D96119A342256018BF5960EC
:10573000636808BFC8F8001062514B60304600F043
:105740002FF804F10B00231D20F00700C21A1CBF24
:105750001B1AA350AFE76268A3420CBFC8F8002031
:105760005A60EBE723466468AEE73C467F68B6E7DD
:105770001A465B68A342FBD100235360DEE70C238B
:105780003046336000F00CF894E70560D6E700BFC0
:10579000340400200148FFF7A8B800BF2C04002003
:1057A0000148FFF7A3B800BF2C04002070B5C669FC
:1057B00004460D4676B91020FFF742FF0246E0612D
:1057C00020B96B21174B184800F0A8FDC0E901660D
:1057D0000660C660E669F36883B1E369DB6853F885
:1057E0002500B8B9012101FA05F6721D2046920084
:1057F00000F0B2FD60B1C0E901560EE021220421A3
:10580000204600F0A9FDE369F060DB68002BE4D1DD
:10581000002070BD026843F825200023C0E903334F
:10582000F7E700BF576A0008D76A000870B5C66975
:1058300005460C4676B91020FFF702FF0246E861E4
:1058400020B98F21084B094800F068FDC0E90166C6
:105850000660C6603CB1EB696268DB6853F82210F1
:10586000216043F8224070BD576A0008D76A0008DB
:105870002DE9F04107460C461E4600200D6901F156
:10588000140CDCF80030013099B202FB01611E0CEF
:105890000B0C02FB063389B201EB034185424FEA50
:1058A00013464CF8041BECDC0EB3A368AB4219DCC6
:1058B000616838460131FFF779FF804628B9024612
:1058C000BA210C4B0C4800F029FD226904F10C01AF
:1058D000023292000C3000F013FD21463846FFF7EB
:1058E000A5FF444604EB850301355E612561204632
:1058F000BDE8F081C66A0008D76A00080346B0F523
:10590000803F3ABF030410200020B3F1807F3CBFEA
:105910001B020830B3F1805F3CBF1B010430B3F1C0
:10592000804F3CBF9B000230002B05DB13F0804F03
:1059300000F1010008BF202070470368024613F001
:1059400007000BD0D90721D4980749BF5B089B08F3
:10595000012013605CBF02201360704799B209B93F
:1059600010201B0CD9B209B908301B0A190704BF53
:105970001B090430990704BF9B080230D90703D4E0
:105980005B0800F1010003D01360704700207047EE
:105990002020704710B50C460121FFF707FF024693
:1059A00028B940F24511044B044800F0B7FC01232C
:1059B0004461036110BD00BFC66A0008D76A0008D1
:1059C0002DE9F04F14460A6923690F469A42A2BF97
:1059D00023460C461F46D4F810A0D7F81090A368B1
:1059E00061680AEB0906B34285B0B8BF0131FFF721
:1059F000DDFE30B902464FF4B171434B434800F02D
:105A00008DFC00F114052B46002205EB860843456A
:105A100021D307F1140104F1140202EB8A0201EB15
:105A200089030293131B153B23F00303043304F192
:105A30001507BA4238BF04230193029B03918B429E
:105A40000CD8002E03DD58F8043D002B5AD0066117
:105A500005B0BDE8F08F43F8042BD8E7B1F800A0FB
:105A6000BAF1000F23D0A9464FF0000C04F1140E38
:105A70005EF8047BD9F800301FFA87FB9BB20AFB63
:105A80000B336344D9F800C03F0C4FEA1C4C0AFBAF
:105A900007C707EB13479BB243EA074372454FEA38
:105AA000174C49F8043BE3D8019B45F803C0039B1E
:105AB0000431B3F80290B9F1000F21D0AE464FF097
:105AC000000A2B6804F1140CBCF800B0BEF8027098
:105AD0009BB209FB0B77574443EA07434EF8043B5C
